:020000040800F2
:1000000000000220090A0008FD0900080D6300082D
:10001000FD090008FD090008FD09000800000000B6
:10002000000000000000000000000000FD090008C2
:10003000FD09000800000000FD09000891620008A9
:10004000FD090008FD090008FD090008FD09000878
:10005000FD090008FD090008FD090008FD09000868
:10006000FD090008FD090008FD090008795E000887
:10007000855E0008E5450008915E00089D5E000869
:1000800081350108A54F0008FD090008FD09000899
:10009000FD090008FD090008FD090008FD09000828
:1000A000FD090008FD090008FD090008FD09000818
:1000B000CD260108D9260108E5260108D94F0008F8
:1000C000FD090008E54F0008FD090008151F01089B
:1000D000211F0108B5330108E13301081534010877
:1000E000FD090008FD09000800000000FD090008E6
:1000F000FD090008FD090008FD090008FD090008C8
:10010000FD090008FD090008F12601082D1F01085E
:10011000493401087D340108FD090008FD09000883
:10012000FD090008FD090008511F0108851F01088D
:10013000B5350108FD090008FD090008FD090008A2
:1001400000000000000000000000000000000000AF
:10015000FD090008FD090008FD090008B134010887
:10016000F14F0008FD090008A1620008C5620008FF
:10017000FD090008E9620008FD090008FD09000802
:10018000FD090008FD090008E534010819350108DA
:10019000391F0108451F0108FD090008FD09000875
:1001A000FD090008FD090008FD090008FD09000817
:1001B0006D5B0008FD090008FD090008FD09000845
:1001C000FD090008FD090008AD400008B94000081D
:1001D000FD090008C5400008FD090008FD090008E8
:1001E000FD090008FD090008FD090008FD090008D7
:1001F000FD090008FD090008FD090008FD090008C7
:10020000FD090008FD090008FD090008FD090008B6
:10021000FD090008FD090008FD090008FD090008A6
:10022000FD090008FD090008FD09000800000000A4
:10023000FD090008FD09000800000000FD09000894
:10024000FD090008FD090008FD090008FD09000876
:10025000FD090008FD090008FD090008FD09000866
:10026000FD090008FD090008FD090008FD09000856
:10027000FD090008FD0900084D35010800000000D7
:10028000FD090008FD090008FD0900080000000044
:0802900000000000FD09000858
:1002A00010B5054C237833B9044B13B10448AFF3B0
:1002B00000800123237010BD4006002400000000D0
:1002C000809B010808B5034B1BB103490348AFF3FA
:1002D000008008BD0000000044060024809B010847
:1002E00001F0FF01102A2BDB10F0070F08D010F8E7
:1002F000013B013A8B422DD010F0070F42B3F6D1EB
:10030000F0B441EA012141EA014122F007047FF003
:1003100000070023F0E80256083C85EA010586EA5A
:10032000010685FA47F5A3FA87F586FA47F6A5FA96
:1003300087F68EB9EED1F0BC01F0FF0102F00702A2
:1003400032B110F8013B013A83EA010313B1F8D14D
:100350000020704701387047002D06BF354603382E
:10036000073815F0010F07D1013015F4807F02BF67
:10037000013015F4C03F0130F0BC0138704700BFB8
:1003800081F0004102E000BF83F0004330B54FEA46
:1003900041044FEA430594EA050F08BF90EA020FB3
:1003A0001FBF54EA000C55EA020C7FEA645C7FEA46
:1003B000655C00F0E2804FEA5454D4EB5555B8BF69
:1003C0006D420CDD2C4480EA020281EA030382EADA
:1003D000000083EA010180EA020281EA0303362D6C
:1003E00088BF30BD11F0004F4FEA01314FF4801C3F
:1003F0004CEA113102D0404261EB410113F0004F51
:100400004FEA03334CEA133302D0524263EB430307
:1004100094EA050F00F0A780A4F10104D5F1200EA5
:100420000DDB02FA0EFC22FA05F2801841F1000100
:1004300003FA0EF2801843FA05F359410EE0A5F1D4
:1004400020050EF1200E012A03FA0EFC28BF4CF005
:10045000020C43FA05F3C01851EBE37101F00045BB
:1004600007D54FF0000EDCF1000C7EEB00006EEBC8
:100470000101B1F5801F1BD3B1F5001F0CD3490852
:100480005FEA30004FEA3C0C04F101044FEA4452A9
:1004900012F5800F80F09A80BCF1004F08BF5FEA30
:1004A000500C50F1000041EB045141EA050130BD10
:1004B0005FEA4C0C404141EB0101013C28BFB1F522
:1004C000801FE9D291F0000F04BF01460020B1FA6D
:1004D00081F308BF2033A3F10B03B3F120020CDA40
:1004E0000C3208DD02F1140CC2F10C0201FA0CF01E
:1004F00021FA02F10CE002F11402D8BFC2F1200C83
:1005000001FA02F120FA0CFCDCBF41EA0C01904038
:10051000E41AA2BF01EB0451294330BD6FEA040481
:100520001F3C1CDA0C340EDC04F11404C4F120026C
:1005300020FA04F001FA02F340EA030021FA04F37E
:1005400045EA030130BDC4F10C04C4F1200220FAD5
:1005500002F001FA04F340EA0300294630BD21FA13
:1005600004F0294630BD94F0000F83F4801306BFD9
:1005700081F480110134013D4EE77FEA645C18BFCD
:100580007FEA655C29D094EA050F08BF90EA020F64
:1005900005D054EA000C04BF1946104630BD91EA5C
:1005A000030F1EBF0021002030BD5FEA545C05D15F
:1005B0004000494128BF41F0004130BD14F580049E
:1005C0003CBF01F5801130BD01F0004545F0FE4112
:1005D00041F470014FF0000030BD7FEA645C1ABF47
:1005E000194610467FEA655C1CBF0B46024650EA7E
:1005F000013406BF52EA033591EA030F41F40021AA
:1006000030BD00BF90F0000F04BF0021704730B52F
:100610004FF4806404F132044FF000054FF0000104
:1006200050E700BF90F0000F04BF0021704730B5C5
:100630004FF4806404F1320410F0004548BF40429A
:100640004FF000013EE700BF42004FEAE2014FEAEF
:1006500031014FEA02701FBF12F07F4393F07F4FCA
:1006600081F06051704732F07F4208BF704793F0CD
:100670007F4F04BF41F40021704730B54FF46074E0
:1006800001F0004521F000411CE700BF50EA0102E3
:1006900008BF704730B54FF000050AE050EA01028C
:1006A00008BF704730B511F0004502D5404261EBFC
:1006B00041014FF4806404F132045FEA915C3FF43D
:1006C000D8AE4FF003025FEADC0C18BF03325FEADA
:1006D000DC0C18BF033202EBDC02C2F1200300FA8B
:1006E00003FC20FA02F001FA03FE40EA0E0021FAB0
:1006F00002F11444BDE600BF53B94AB9002908BF4E
:1007000000281CBF4FF0FF314FF0FF3000F074B9EC
:10071000ADF1080C6DE904CE00F006F8DDF804E058
:10072000DDE9022304B070472DE9F047089D044637
:100730008E46002B4DD18A42944669D9B2FA82F294
:1007400052B101FA02F3C2F1200120FA01F10CFAD0
:1007500002FC41EA030E94404FEA1C48210CBEFB08
:10076000F8F61FFA8CF708FB16E341EA034306FB91
:1007700007F199420AD91CEB030306F1FF3080F020
:100780001F81994240F21C81023E63445B1AA4B26D
:10079000B3FBF8F008FB103344EA034400FB07F70F
:1007A000A7420AD91CEB040400F1FF3380F00A8150
:1007B000A74240F207816444023840EA0640E41B45
:1007C00000261DB1D4400023C5E900433146BDE8F1
:1007D000F0878B4209D9002D00F0EF800026C5E993
:1007E000000130463146BDE8F087B3FA83F6002EAB
:1007F0004AD18B4202D3824200F2F980841A61EB23
:10080000030301209E46002DE0D0C5E9004EDDE740
:1008100002B9FFDEB2FA82F2002A40F09280A1EB28
:100820000C014FEA1C471FFA8CFE0126200CB1FB7D
:10083000F7F307FB131140EA01410EFB03F0884276
:1008400008D91CEB010103F1FF3802D2884200F203
:10085000CB804346091AA4B2B1FBF7F007FB101195
:1008600044EA01440EFB00FEA64508D91CEB040433
:1008700000F1FF3102D2A64500F2BB800846A4EB8E
:100880000E0440EA03409CE7C6F12007B34022FA79
:1008900007FC4CEA030C20FA07F401FA06F31C43A8
:1008A000F9404FEA1C4900FA06F3B1FBF9F8200CB5
:1008B0001FFA8CFE09FB181140EA014108FB0EF0FB
:1008C000884202FA06F20BD91CEB010108F1FF3A4B
:1008D00080F08880884240F28580A8F10208614457
:1008E000091AA4B2B1FBF9F009FB101144EA014165
:1008F00000FB0EFE8E4508D91CEB010100F1FF3410
:100900006CD28E456AD90238614440EA0840A0FBA7
:100910000294A1EB0E01A142C846A64656D353D07D
:100920005DB1B3EB080261EB0E0101FA07F722FAA1
:1009300006F3F1401F43C5E9007100263146BDE8CA
:10094000F087C2F12003D8400CFA02FC21FA03F32D
:10095000914001434FEA1C471FFA8CFEB3FBF7F0AE
:1009600007FB10360B0C43EA064300FB0EF69E42D3
:1009700004FA02F408D91CEB030300F1FF382FD26C
:100980009E422DD9023863449B1B89B2B3FBF7F614
:1009900007FB163341EA034106FB0EF38B4208D9ED
:1009A0001CEB010106F1FF3816D28B4214D9023E2E
:1009B0006144C91A46EA004638E72E46284605E74C
:1009C0000646E3E61846F8E64B45A9D2B9EB02081D
:1009D00064EB0C0E0138A3E74646EAE7204694E7AD
:1009E0004046D1E7D0467BE7023B614432E73046E0
:1009F00009E76444023842E7704700BF684620F0C8
:100A000007018D46FEE7000008B50F4A0F4B9A42DA
:100A100008D00F4A0C4B0D4852F8041B43F8041B36
:100A20008342F9D10B4A0C4B9A4206D0134600215F
:100A3000094A43F8041B9342FBD105F0D1FE16F09E
:100A4000B1FF00F03BFAFEE700000024400600245E
:100A5000BC9B010840060024B4CB062470477047B5
:100A600070477047704770477047012A08BF0160A0
:100A700000207047012A08BF016000207047000075
:100A80002DE9F04F2DED068B83B08346C44D8A4689
:100A900000F5005901F500582F462E460024BEE00F
:100AA00016F084F8B0EE409ACDE0BE4B93ED006AAC
:100AB000DFEDBD6A66EE266A66EEA76A57ED015A5B
:100AC00075EEA65A47ED015AF5EE005A26EE256A54
:100AD00026EE276AD7ED005A35EE866A87ED006A62
:100AE00097ED016A76EE266AC7ED016A019B03EB7A
:100AF0004303013306EE903AF8EE666AF4EEC76AF5
:100B0000F1EE10FA38D5A94B93ED007ADFEDA86A23
:100B100067EE266A66EEA76A16ED026A76EE266A28
:100B200046ED026ADFEDA36A67EE266A66EEA76A03
:100B300016ED016A36EE266A06ED016A9FED9E6AA1
:100B400027EE066A26EE276AD6ED005A35EE866A4B
:100B500086ED006A96ED016A76EE266AC6ED016AB8
:100B6000DFED966A27EE267A27EE277AD6ED026A1F
:100B700036EE877A86ED027A0199022934D9904BB4
:100B80001B68012B00F0FE808E4B186800EB4003C1
:100B90000B448D4991ED007ADFED836A67EE266A9A
:100BA00066EEA76A7E4901EB830C9CED006A36EE87
:100BB000266A8CED006A1B1A01EB830CB5EE006A05
:100BC00027EE067A27EE277A9CED006A37EE067A42
:100BD0008CED007A1B1A01EB830393ED007A77EE1C
:100BE000266AC3ED006A04E0754B1B68012B00F018
:100BF000C980764B93ED007A754BD3ED006A27EEF2
:100C0000267A67EE277A42ED017AEAEC019AA8EC9F
:100C1000019A0C360837B4F5006F00F0B8800194E3
:100C2000013407EE904AB8EE678AFBEC018AB9EC12
:100C300001AAB5EC010AB5EE400AF1EE10FA3FF553
:100C40002FAFB1EEC09A634B93ED007A624BD3EDB8
:100C5000007AC8EE076AF4EEE76AF1EE10FA05DDF5
:100C600027EE277AC7EE087A29EE279A16F0E2FFD8
:100C7000430000EE103AB8EEC00B9FED477B20EE2C
:100C8000070BB7EEC08BB0EE480A15F06DFA69EEAF
:100C9000009AB0EE480A15F083FE29EE009A4F4BF9
:100CA0001B78002BB1D12A4668EEA88A6AEE0A7A30
:100CB00078EEA77AF5EE008A67EEA87A55ED018AFC
:100CC00077EEA87AB7EE007A454B93ED006AC7EE4F
:100CD000066A37EE667A67EE877A45ED017A019902
:100CE000002981D03B4BD3ED006AB6EE007A26EEA8
:100CF000877A06EE901AB8EE666AF0EE006A77EE32
:100D0000666AB4EEE66AF1EE10FA7FF56DAF354B28
:100D10001B68591E01297FF6C8AE019801287FF68D
:100D2000E5AE00F001010B437FF4E0AE4108481E40
:100D30001C4BD3ED006AB6EE086A26EE866A26EEF4
:100D4000276A174B03EB8000D0ED005A75EE865AE8
:100D5000C0ED005A03EB8100F7EE085A66EEA56A73
:100D600066EEA76AD0ED005A76EEA56AC0ED006A7D
:100D7000013103EB8103D3ED006A36EE866A83ED21
:100D8000006AB3E6114B4FF07E51196031E703B0B2
:100D9000BDEC068BBDE8F08F182D4454FB210940B3
:100DA000484A0624946A06246DE7FB3DD46A06246B
:100DB000AE47613DAE47E13D7B142E3E3D0AD73D37
:100DC000080000240C00002404070024100700245D
:100DD000986A062424000024DC6A0624C80700243C
:100DE000E06A06243000002408B591ED007AB7EEE1
:100DF000C77A9FED090B27EE000B15F0E5FAB7EE69
:100E0000007B37EE400BB6EE007B20EE070BB7EE13
:100E1000C00B08BDAFF30080182D4454FB211940CE
:100E200008B591ED007AB7EEC77A9FED050B27EE76
:100E3000000B15F009FBB7EEC00B08BDAFF3008047
:100E4000182D4454FB21094010B5044600F5005309
:100E50009B692BB142F210002044032201469847BF
:100E6000204610BD10B50446836813B10322014625
:100E70009847204610BD000010B5044680ED040AD6
:100E8000B7EE007AC7EE007AC0ED057A9FED0A0A48
:100E900080ED020A4FF07C534360C36000238361FE
:100EA00015F0E6F884ED070A00232370012384F887
:100EB000293084F8283010BD0000C8422DE9F043E5
:100EC0002DED028BADF5097D3B4C204601F0B4FBC6
:100ED0000021204601F0B4FC0221204601F0B2FBC3
:100EE000204601F0CBFB354B83ED000A4FF48071B7
:100EF000204601F0C7FB002002F08AFF4FF4FA7091
:100F000005F074FA2E4802F075FF2E4E002400946E
:100F1000234601222C490968304603F0F9FD2B4D88
:100F20000094234601222A490968284603F0F0FD6F
:100F30000121284603F0DEFE0121304603F0DAFEEF
:100F400041F2883005F054FA2146284603F0D2FEDB
:100F5000204802F04FFF0094012322461E490968F1
:100F60001E4803F0D5FD0094012322461C49096860
:100F70001C4803F0CDFD1EAA9CA802E05432824218
:100F800032D00B2302F8503CFF2302F84F3C0023E1
:100F900042F84C3C42F8483C42F8443CA2F13C0345
:100FA0000B211970FF215970002159609960D96097
:100FB00014339342F4D1E1E7344800242C00002498
:100FC000C08F0108344A062444910108184A0424B9
:100FD00050910108D88F01084C910108CC070024DA
:100FE00048910108E00700240222D14B19680AA8A1
:100FF00003F06EF80222CF4B19681FA803F068F8BF
:101000000222CD4B196834A803F062F80222CB4BC0
:10101000196849A803F05CF80222C94B19685EA858
:1010200003F056F80222C74B196873A803F050F872
:10103000C54D05F11804042306220AA9204603F031
:1010400057F8284601F03AFBB0EE408A00212046CE
:1010500003F06CFA0146DFEDBD8ADFF87093F0EE25
:10106000680A00231A46B0EE480A484602F09AFD84
:101070000121204603F05AFA0146DFF85483F0EECE
:10108000680A00231A46B0EE480A404602F08AFD7C
:101090000221204603F04AFA0146AD4FF0EE680AFD
:1010A00000231A46B0EE480A384602F07BFD0321C1
:1010B000204603F03BFA0146A64EF0EE680A0023F4
:1010C0001A46B0EE480A304602F06CFD0421204674
:1010D00003F02CFA0146A04DF0EE680A00231A46F0
:1010E000B0EE480A284602F05DFD0521204603F0D7
:1010F0001DFA0146994CF0EE680A00231A46B0EE3C
:10110000480A204602F04EFD0DF1080ECC46BCE820
:101110000F00AEE80F009CE80F008EE80F00DFED37
:10112000908A0022F7EE000AB0EE680A02A98D4804
:1011300002F0A4FE0DF1080EC446BCE80F00AEE8B4
:101140000F009CE80F008EE80F000022F7EE000A67
:10115000B0EE680A02A9844802F090FE0DF1080E74
:10116000BC46BCE80F00AEE80F009CE80F008EE81C
:101170000F000122F7EE000AB0EE680A02A97B48D0
:1011800002F07CFE02AFB446BCE80F000FC79CE83B
:101190000F0087E80F000022DFED750AB0EE680A45
:1011A00002A9744802F06AFE02AE0FCD0FC695E8A0
:1011B0000F0086E80F000022DFED6F0AB0EE680A2C
:1011C00002A96E4802F05AFE02AD0FCC0FC594E89A
:1011D0000F0085E80F000022DFED690A9FED690A24
:1011E00002A9694802F04AFE684DB0EE480A0022A2
:1011F000674B1968284602F02BFD664CB0EE480A92
:101200000022654B1968204602F022FDB0EE680A04
:10121000284602F03FFDB0EE680A204602F03AFD93
:10122000284602F049FD204602F046FD5B4B03F5DF
:101230000051002243F8042B8B42FAD15C2014F0B9
:1012400074FF0446564B1860002380F8583003257D
:101250000123AB4007EE903AF8EEE77A9FED517A22
:1012600087EE278AB0EE480A14F07EFF84ED000A6C
:10127000B0EE480A15F094FB84ED010A01350834FC
:101280000C2DE5D1342014F050FF0546444B1B686B
:10129000454A0260454A4260454A8260454AC2600A
:1012A0000361454B4361042383614FF48063C36151
:1012B00000240463202014F049FF2862202014F049
:1012C00045FF6862202632462146286A16F0C6FB92
:1012D00032462146686A16F0C1FBE8692A6A131F84
:1012E0001C3243F8044F241A9342FAD1082014F018
:1012F0002DFFA862082014F029FFE862AB6A0022E3
:101300001A605A60EB6A4FF001321A605A602B4B38
:101310001D602B4C204614F093FC9FED170A2046CD
:1013200014F0E2FC274C284D94ED000A284651E0C9
:1013300054910108589101085C91010860910108DD
:101340006491010868910108344800246F12033B3E
:10135000AC4802242C4902244C490224EC480224C3
:101360000000000094060024E04904245C060024E8
:10137000CDCCCC3D5C6A06249A99993E9C6A0624A1
:101380009A99193E9A9919BECC0600246C490224F8
:101390006C9101089849022470910108484A06247A
:1013A000C4070024DB0F4940810A0008A848002434
:1013B000E0490224344A042414280024D86A06246C
:1013C000486A06242C000024C4490224CC48022484
:1013D0000C49022414F052FE234BEB60284614F013
:1013E0006BFE224E94ED000A3046FFF745FD4FF0AC
:1013F0007E5575601E4E94ED000A3046FFF73CFDA9
:1014000075601C4E94ED000A3046FFF735FD75609F
:10141000194E94ED000A3046FFF72EFD7560174B0C
:10142000174A1A60174B4FF07C521A60164B174A36
:101430001A600023164A1360164A1360164A136096
:10144000164802F0D7FC164C04F1180003F058F8C7
:101450001449204601F0F2F8134802F0CBFC642056
:1014600004F0C6FFFBE700BF0000FA4514070024A4
:10147000400700246C07002498070024E06A062433
:1014800000002041E86A0624DC6A0624CDCCCC3D6D
:10149000EC6A0624F06A0624E46A0624FC8F01083C
:1014A000344800249D1E00081C90010870B5826914
:1014B000530000F09E8000239FED556A5AE0D5ED61
:1014C000007A3EE0F7EE006A77EEA67ABDEEE77AA4
:1014D000B8EEC77A77EEC77A9FED4E7A67EE877AD5
:1014E000BDEEE77A17EE102A5142C2F30A02C1F3A9
:1014F0000A0158BF4A4207EE102AB8EEC77A77EEC3
:10150000C77ABDEEE77AB8EEC77A77EEC77A511C94
:10151000D1F1000EC1F30A01CEF30A0E58BFCEF18D
:10152000000105EB810191ED007A27EE877A05EB4A
:10153000820276EEE77AD2ED006A67EEA67A77EE5F
:10154000277A04EB0331426802EB810292ED007AC4
:1015500067EE877A36EE276A013446F80C40426A15
:1015600052F80C20B2F5805F39D001338269B3EBB9
:10157000420F40D2826AD25C002AF6D045694FEA17
:10158000830C466A56F8234005F50052D2ED007AE6
:1015900006EE904AFAEECA6A76EEE76A92ED017AB2
:1015A00037EE677AC6EE877A127A002A8AD1F5EE8C
:1015B000C07AF1EE10FA82D4B7EE007AF4EEC77A70
:1015C000F1EE10FAFFF67EAFF5EEC07AF1EE10FA0A
:1015D0003FF575AF05F50055D5ED037AB1E7C26A61
:1015E0000121D154816A0022CA54016A41F80C20B9
:1015F000BBE79FED076AB7EEC66A120307EE102A33
:10160000BBEEEF7B86EE070BB7EEC00B70BD00BFE5
:10161000000000000000004500B583B08DED010A18
:1016200083682BB1C36801A9984703B05DF804FB38
:1016300014F08EFD2DE9F0412DED028B86B00746AA
:101640000E46F0EE408AB0EE608A904600F50052F9
:101650000023936104938B6833B1022202A8984758
:10166000F3680593B36804936D460DF1080C9CE88C
:10167000030085E8030007F5005303F1100494E824
:1016800003008CE8030095E8030084E80300049A53
:101690009C6904949A61059AD9690591DA611CB133
:1016A000032261466046A04707F50053C3ED008A58
:1016B00083ED018A83F808803D46002400EE104A3D
:1016C000BAEEEA0AF7EE007A77EEC07A67EEA87A09
:1016D00028EE000A37EE800A3046FFF79DFFA5ECA2
:1016E000010A0134B4F5006FE8D1B0EE480A304683
:1016F000FFF792FF07F5005383ED030A384606B063
:10170000BDEC028BBDE8F0812DE9F04F91B08B4626
:101710000F921D46DDF868A002F110010020C3B24F
:10172000EA5C030AEB5C43EA02231B119A000BEB11
:10173000830302F500565E44D3ED007A96ED007AFD
:1017400077EEC77A41ED037A02F580545C4402F5E6
:1017500040525A44D4ED007A92ED007A77EEC77A7F
:1017600041ED017AD3ED007A96ED007A77EE877A33
:1017700094ED007AD2ED006A37EE267A77EE876A2A
:1017800041ED046A77EEC77A41ED027A04301031F8
:10179000B0F5805FC3D10F990B465A4601F58040E2
:1017A000D3ED007A93ED047A77EE877AC2ED007A72
:1017B000D3ED007A93ED047A77EEC77AC2ED047A1E
:1017C000996891609969916193ED057AD3ED077AF3
:1017D00037EE677A9FED8A6A27EE067AD3ED016AC3
:1017E00076EE876AC2ED016AD3ED016A36EEC77AFA
:1017F00082ED037AD3ED057A93ED077A77EE877A57
:1018000067EE867A93ED037A37EE277A82ED057AD2
:1018100093ED037A77EEC77AC2ED077A2033203250
:101820008342BDD1CDF818A00AF1040307930F9BA2
:101830000D9303230C93CDF838B00FE00C9A0132CE
:101840000C92069B08330693079B083307930E9B65
:101850000D990E910C2A00F0C9800D934FF0010EE6
:101860000C990EFA01FE4FEA5E0215460A92042315
:1018700003FA01F1089193004FEA4E0009904FEAF4
:10188000CE0E0D9E7018029006EB820203920A1D86
:101890000E98044600EB020902EB850282180192C1
:1018A00000F10408301D049003F1040BA34404EB81
:1018B000010C9C444B000B930023059358ED017AD7
:1018C00019ED017A77EE877A049941ED017A58EDA6
:1018D000017A19ED017A77EEC77A029EC6ED007A99
:1018E0005BF8043C039C2360019B53F8042C089D87
:1018F00063191A60079C54F8043CCAF85030CAF8BF
:101900004830069C6368CAF85430CAF84C300A9CC8
:10191000012C52D9371D0B98041F0D460C44584614
:101920004146019A4B469AED126A9AED137AD3ED2D
:10193000006AD2ED007A66EE866A67EE877A76EE06
:10194000E76AD1ED007A77EEA67AE5EC017AF1EC60
:10195000017A77EEE66A66ED016AF3EC017A27EE2A
:10196000277AF2EC017A66EE277A77EE277A90ED05
:10197000007A37EE277AA7EC017AB0EC017A77EE9D
:10198000C77A64ED017ADAED127ADAED145A9AED3B
:10199000137A9AED156A67EE866A25EE875A76EE17
:1019A000856ACAED136A67EEA57A27EE067A77EEA6
:1019B000C77ACAED127A6345B5D1059B099A1344DB
:1019C0000593029A72440292039A72440392F1447C
:1019D000019A72440192F044049A72440492F344CE
:1019E000F444B3F5805FFFF469AF27E70F988842AE
:1019F00003D04FF4804216F017F811B0BDE8F08F15
:101A0000F304353F2DE9F04F91B00E910D920F93F5
:101A1000DDF868B0CDF818B00B920B230C930BE0F7
:101A20000E9B0B930D990C9B013B0C93069A083A65
:101A30000692022B00F0CB804FF0010E0C980EFAAC
:101A400000FE4FEA5E020992042303FA00F40794B1
:101A50004FEA4E0308934FEACE0E884601EB820A06
:101A60000B9800EB82030193031D0293231D01EBEE
:101A70000309C118039103EB8203C3180493D446EE
:101A800063000A9300230593079B1A464244D8ED4E
:101A9000007A19ED017A77EE877A029C44ED017A9B
:101AA000D8ED007A19ED017A77EEC77A039D45EDFE
:101AB000017ADAED007A77EEA77A019FC7ED007A16
:101AC0005344D3ED007A77EEA77A049E46ED017A6F
:101AD00006990B6CCBF85030CBF848304B6CCBF8F8
:101AE0005430CBF84C30099B012B50D908F104033A
:101AF0000A9908EB01000437494693ED007A72ED2C
:101B0000017A77EE877AE4EC017AD1ED007A30ED54
:101B1000017A77EEC77AE7EC017ADBED125A9BED9A
:101B2000136AF3EC016AD2ED007A76EEE76AB1EC63
:101B3000017AD0ED007A77EE277A26EEA57A27EEA5
:101B4000865A37EE057AA5EC017A67EEA57A66EE3D
:101B5000866A77EEE67AE6EC017ADBED127ADBED67
:101B6000145A9BED137A9BED156A67EE866A25EE93
:101B7000875A76EE856ACBED136A67EEA57A27EE73
:101B8000067A77EEC77ACBED127A6345B5D1059B1D
:101B9000089A13440593F044F244019A7244019266
:101BA000029A72440292F144039A72440392049A94
:101BB00072440492F444B3F5805FFFF465AF0D9B6B
:101BC0000B998B423FF42CAF0B930E992BE70B9B99
:101BD0000D9A934200F08B800D990B460E9A01F5F9
:101BE0008041D3ED007A93ED047A77EE877AC2EDE7
:101BF000007AD3ED007A93ED047A77EEC77AC2EDDE
:101C0000047AD3ED027A77EEA77AC2ED027AD3EDA9
:101C1000067A77EEA77AC2ED067AD3ED017A93EDD4
:101C2000037A77EE877AC2ED017AD3ED057A93EDE8
:101C3000077A77EEC77AC2ED037AD3ED017AD3ED56
:101C4000036A77EEE66A93ED057AD3ED077A77EECD
:101C5000277A36EEA77A9FED296A27EE067A82ED7B
:101C6000057A77EEE67A67EE867AC2ED077A203358
:101C700020328B42B5D10E9A103200210D9D0F9863
:101C800052ED047A12ED027A37EE876A77EEC77A60
:101C900052ED036A76EEA66A12ED017A37EE077A04
:101CA000CBB2C45C0B0AC35C43EA04231B1105EBF3
:101CB000830376EE265AC3ED005A03F5005476EE00
:101CC000666AC4ED006A03F5805477EE876AC4ED56
:101CD000006A03F5405377EEC77AC3ED007A04310A
:101CE0001032B1F5805FCBD111B0BDE8F08F4FF469
:101CF00080420D9815F098FE6EE700BFF304353F63
:101D000083695B0000F0C480F0B52DED028B85B0D7
:101D10000546B0EE408A002458E0D6ED007A3EE059
:101D2000F7EE006A77EEA67ABDEEE77AB8EEC77AEC
:101D300077EEC77A9FED577A67EE877ABDEEE77A3E
:101D400017EE101A4842C1F30A01C0F30A0058BF47
:101D5000414207EE101AB8EEC77A77EEC77ABDEEA9
:101D6000E77AB8EEC77A77EEC77A481CD0F1000C54
:101D7000C0F30A00CCF30A0C58BFCCF1000006EB0C
:101D8000800090ED007A27EE877A06EB810176EEEF
:101D9000E77AD1ED006A67EEA67A77EE277A03EB51
:101DA0000433696801EB830368EE277AC3ED007A98
:101DB000296A8B5801338B502B6A9B58B3F5805F8F
:101DC0003AD00134AB69B4EB430F5DD2EB6A1B5DD3
:101DD000002BF6D0A2002B6A53F82430002BE7DB4F
:101DE0006E6906F50051D1ED007A06EE903AFAEEF2
:101DF000CA6A76EEE76A91ED017A37EE677AC6EE47
:101E0000877A097A00298BD1F5EEC07AF1EE10FAC3
:101E100083D4B7EE007AF4EEC77AF1EE10FAFFF64B
:101E20007FAFF5EEC07AF1EE10FA3FF576AF06F52A
:101E30000056D6ED037AB2E7E96A00230B55A96A8A
:101E400001200855696A8B50A603134FAA68696878
:101E50002B6900933B4602EB843201EB843103A8EB
:101E6000FFF752FCE968A8682B6831443044984772
:101E70006A68E9682B6900933B463244314403A801
:101E8000FFF7C0FD2C639CE705B0BDEC028BF0BDF5
:101E9000704700BF00000045449001082DE9F0475D
:101EA0002DED028B06460D461746BC4802F016F88B
:101EB000DFEDBB7A20EE270AF7EE007A30EE270A34
:101EC000B84B83ED000AB84802F008F8B74B83ED31
:101ED000000AB74802F002F8B64B83ED000AB64894
:101EE00001F0FCFFB54B83ED000AB54801F0F6FFA9
:101EF000B44B83ED000AB44801F0F0FFF0EEC06A85
:101F0000B24BC3ED006AB24B1B6833F0020335D10C
:101F1000A84BB04AD2ED007AF0EEE77A93ED007A62
:101F200067EE877A9FEDAC7A67EE877A9FEDAB7AA2
:101F300077EE877AC3ED007AA04BA94A92ED007A3A
:101F4000B0EEC77AD3ED007A27EE277A83ED007AD8
:101F50009C4BA44A92ED007AB0EEC77AD3ED007A9A
:101F600027EE277A83ED007A9F4BD3ED007AF0EECF
:101F7000E77A67EEA67A954BC3ED007A934BD3EDE3
:101F8000007A9FED9A7AF4EEC77AF1EE10FA19DD35
:101F90009FED977A77EEC77AC3ED007AB5EEC00A67
:101FA000F1EE10FA06DB934B02221A60924B0122EB
:101FB0001A600AE08F4B00221A608F4B4FF0FF32FD
:101FC0001A6002E08B4B01221A607C4BD3ED000AB1
:101FD000B2EE000A14F050FBF7EE007A30EE670A1A
:101FE000864B83ED000A864B93ED007AC0EE077AAC
:101FF000844B93ED007A67EE877AB6EE087AF4EEBA
:10200000C77AF1EE10FA58BFF0EE477A7E4BC3ED77
:10201000007A6C4BD3ED000AB2EE000A14F02CFBF0
:10202000F7EE007A30EE670A754BD3ED007A80EE5A
:10203000277A744BD3ED007A27EE277AF6EE087AEA
:10204000B4EEE77AF1EE10FA58BFB0EE677A5D4B66
:1020500093ED006ADFED6D5AC6EE257AB7EE008A81
:1020600078EE677A684BD3ED006A67EEA67A684B24
:10207000C3ED007AC7EE256A26EE867A654B83EDBE
:10208000007A78EE677A77EEC77A634BC3ED007A11
:102090004E4BD3ED000AB2EE000A14F0EDFA30EE2A
:1020A000480A5E4B83ED000A554B93ED007AC0EE73
:1020B000077A544B93ED007A67EE877AB6EE087A8A
:1020C000F4EEC77AF1EE10FA58BFF0EE477A544BAF
:1020D000C3ED007A534BC3ED007A78EE677A524B2A
:1020E000C3ED007A514802F0F9FD80F001085FFA73
:1020F00088F84F4802F0F2FD80F00104E4B2B8F134
:10210000000F02D04B4B1B78EBB14B4B1C70002CDB
:10211000DFF83891B7EE000ADFED487A07FE800A53
:10212000484601F0B7FD434B83F80080444B1C70D8
:10213000444801F0C1FD484601F0BEFD002F00F00B
:10214000028100249BE0DFF8089199F8003083F0C9
:10215000010389F80030DFF8FCA00121504602F0AD
:10216000C9FD4FF47A7004F043F999F8001036482D
:1021700002F0C0FD4FF47A7004F03AF900215046A5
:1021800002F0B8FD99F80030002B9FED2C0A08FEF4
:10219000000A2C4801F07EFDB7E700BF940600243A
:1021A0000000C642E06A0624E0490424E86A0624E6
:1021B0005C060024DC6A06245C6A0624EC6A0624B9
:1021C0009C6A0624F06A0624CC060024E46A0624ED
:1021D00010000024140000243333333F9A99993EB1
:1021E000180000241C000024200000248FC2F53CAD
:1021F0006891ED3C080000240C000024304A0424BF
:102200002C000024A84802242C4A0424713DCA3F13
:10221000946A0624D46A0624986A06240C070024CB
:10222000080700240407002410070024CC0700241A
:10223000E0070024C9070024C807002400000000AC
:10224000CA0700246C490224344A0624984902240F
:1022500004000024184A0424336803EB84031A683A
:102260002B6803EB84031A60736803EB84031A681A
:102270006B6803EB84031A600134A74263D03448CF
:1022800013F040FD334B83ED000A334813F03AFD61
:10229000324B83ED000A324813F034FD314B83EDAD
:1022A000000A314813F02EFD304B83ED000A304B0D
:1022B0001B78002BD0D14FEA8408336803EB8403EA
:1022C00093ED000A2B4B1868FFF71AFD2A4B1B6889
:1022D0000BB3012B2AD0022B2DD09FED280A284BBF
:1022E00093ED007A2B68434432684244F7EE007A5B
:1022F00077EEC77AD2ED006A67EEA67A27EE000A7B
:1023000037EE800A83ED000A2B6843441A686B6835
:1023100043441A60B0E7174B1868FFF7C7F819482D
:1023200013F098FC184813F0B7FED8E7114B186863
:10233000FFF7BCF8D3E70F4B1868FFF7B7F8114861
:1023400013F088FCCBE7BDEC028BBDE8F08700BF43
:10235000140700241400002440070024180000245F
:102360006C0700241C00002498070024200000248F
:1023700004000024D86A062428000024000000007D
:10238000E86A0624486A0624C44902242DE9F0417B
:102390002DED028B88B07D48002404600B27077167
:1023A000FF2646718771C671077246728772C672C0
:1023B000077346738773C6734461046280F828709C
:1023C00080F82960C4620463446380F83C7080F83C
:1023D0003D6004644464846480F8587080F85960F7
:1023E000C465046644660467694D2A46694913F06A
:1023F00097FE694B1F705E705C609C60DC60674B91
:102400001F705E705C609C60DC60DFF824822A468E
:102410004146634813F084FE2A464146614813F062
:102420007FFE2A464146604813F07AFE2A4641461E
:102430005E4813F075FE2A4641465D4813F070FE73
:102440002A4641465B4813F06BFE5B4B1F705E7083
:102450005C609C60DC60594B1F705E705C609C60CF
:10246000DC60574807764676C46104624462DFF850
:10247000C4812A46414613F053FE524807764676F9
:10248000C461046244622A46414613F049FE2A466A
:102490004D494E4813F044FE2A464D494D4813F02D
:1024A0003FFE4D4B07934D4B06939FED4D8A4D4C90
:1024B0000122F7EE000AB0EE480A04A92046FFF711
:1024C000B9F804A8FEF7CEFC474E2A46314620460E
:1024D00013F026FE454B0393454B0293454C0122D6
:1024E000F7EE000AB0EE480A69462046FFF7A2F868
:1024F0006846FEF7B7FC2A463146204613F010FE28
:102500003D4BD3ED007AB5EE007A67EE877AFAFE9E
:10251000677A3A4BC3ED007A394C2A46214639484E
:1025200013F0FEFD2A462146374813F0F9FD2A46EE
:102530002146364813F0F4FD2A462146344813F06C
:10254000EFFD344C2A462146334813F0E9FD2A4674
:102550002146324813F0E4FD2A462146304813F064
:10256000DFFD2A4621462F4813F0DAFD2A46214690
:102570002D4813F0D5FD2A4621462C4813F0D0FDF6
:1025800008B0BDEC028BBDE8F08100BF34480024E8
:1025900000000024630A0008344A0624184A042470
:1025A00094060024E04904245C0600245C6A0624A6
:1025B0009C6A0624CC060024CC070024E0070024F3
:1025C0006C49022498490224670A0008486A0624D4
:1025D000690A0008C4490224E90D00086B0A0008D2
:1025E0000000000014280024490E0008210E0008F5
:1025F000750A0008F407002434000024A8480224C7
:10260000650A000814070024400700246C07002412
:10261000980700245D0A0008CC4802240C490224D3
:10262000AC4802242C4902244C490224EC480224E0
:102630005F0A0008610A0008704700BF143001F00B
:102640007DBA00BF38B500F1140504462DED028BAC
:10265000284601F01FFA284601F018FA2846B0EE85
:10266000408A01F001FAD0ED007AF8EE677A88EE40
:10267000277ABDEC028B84ED1B7A38BD143001F053
:1026800005BA00BF38B500F1140504462DED028BE4
:10269000284601F0EDF9284601F0F8F92846B0EE99
:1026A000408A01F0E1F9D0ED007AF8EE677A88EE21
:1026B000277ABDEC028B84ED1B7A38BD90ED1B0AA6
:1026C000704700BF10B540F203338EB000244FF6C0
:1026D0000B7240F20341ADF8083009A80123ADF8B0
:1026E0001020ADF824202246ADF80C100094029979
:1026F00007940C94CDE90544CDE90A4402F008FAA8
:1027000004A8012322460399009402F001FA09A8C3
:1027100002F0E4FA10B901200EB010BD04A802F0D6
:10272000DDFAA0420CBF022020460EB010BD00BF53
:102730002DE9F04103239AB04FF0010800254FF630
:102740000B740746CDE91438394BADF84C40CDE950
:102750001053A3F19F63A3F57D43CDE9165812935F
:10276000FFF7B0FF4045064623D0022842D040F68E
:102770000132304B07F158000BACADF82C200B990F
:102780001895CDF86480CDF84A3000F0DBF810A938
:1027900007F1700003F0FCFB274B0FCB84E80F0020
:1027A0003A6F214607F1140001F026F91AB0BDE88E
:1027B000F08110231F4A06A906908DF828300BAC33
:1027C0001E4BCDF84A2007930295CDE91805CDE9B7
:1027D000080502A802F012FC0823029A03A9204669
:1027E000ADF80C608DF80E50049605930B9500F033
:1027F000E9F8CCE740F60133ADF82C4000200BACF3
:10280000ADF8183001210B4B42460095CDF84A3007
:102810002B460E95CDE9180106992046CDE90C55B9
:1028200002F076F92946204602F064FAAFE700BFCD
:1028300004020404040604037C8F01080704010B4E
:102840002DE9F04704462DED028B82B0002949D0D6
:10285000012140F2011200230091ADF804208DF80F
:102860000630354A0127354B04F10409344904F197
:102870003C08626040F20272A36040F60663E160C9
:1028800004F1280A2285A3872782E762276403F0E0
:102890005DFF054603F0B2FD6946064650BB4DB3E9
:1028A00004F150008DF8067003F0D2FE072D3ED1E2
:1028B00004F114052046FFF73BFF284601F0E6F837
:1028C0002846B0EE408A01F0CFF8D0ED007AF8EE5D
:1028D000677A88EE277A84ED1B7A02B0BDEC028B12
:1028E000BDE8F08740F2011300918DF80610ADF8B5
:1028F0000430B6E704F1500003F0AAFE072D13D010
:102900004946204602F050FF0EB9002DD0D1514665
:10291000504601F039FF4046414601F035FF04F1D1
:10292000120000F079F9C3E7002EF0D1C0E7494664
:10293000204602F039FFBBE7050805090507050633
:10294000050A060630B585B0002504460122ADF81B
:102950000C102B460399009502F0DAF8012120466D
:1029600002F0C8F9012003F041FD2946204602F09B
:10297000C1F9012003F03AFD0121204605B0BDE870
:10298000304002F0B7B900BF10B5C2F3002384B0E5
:102990000C46017C8DF80D2043EA4402FA24022300
:1029A0008DF80C2003AA009402F0C0FB18B101249A
:1029B000204604B010BD04460A2003F017FD20464F
:1029C00004B010BD034670B543F8042B044684B030
:1029D00007C983E80700A37983B91A210B461E2291
:1029E000FA2523742046ADF80C20022303AA009593
:1029F00002F09CFB28B1012004B070BD1B210B46E6
:102A0000EDE70A2003F0F2FC4FF4B85200950223E0
:102A1000ADF80C20204603AA217C02F087FB002899
:102A2000E9D10A2003F0E2FC41F202720095022390
:102A3000ADF80C20204603AA217C02F077FB002889
:102A4000D9D10A2003F0D2FC042200950223ADF86C
:102A50000C20204603AA217C02F068FB0028CAD182
:102A60000A2003F0C3FC062200950223ADF80C20D7
:102A7000204603AA217C02F059FB0028BBD10A2082
:102A800003F0B4FC41F2082200950223ADF80C20BB
:102A9000204603AA217C02F049FB0028ABD10A2082
:102AA000064603F0A3FC0095022303AA217C2046DE
:102AB000ADF80C6002F03AFB00289CD1304603F0E0
:102AC00095FC009522790C232046002A8DF80C30C5
:102AD00003AA4FF0020314BF622142218DF80D10AA
:102AE000217C02F023FB002885D1304603F07EFCD8
:102AF0002279D4E902310B43DBB20AB943F0400337
:102B000062790AB143F020030E22FA258DF80D30C8
:102B10002046009502238DF80C2003AA217C02F0A8
:102B200005FB00287FF467AF0A2003F05FFC10224A
:102B300000950223ADF80C20204603AA217C02F068
:102B4000F5FA00287FF457AF0A2003F04FFC12215A
:102B500000950223ADF80C1003AA217C204602F058
:102B6000E5FA00287FF447AF0A2003F03FFC01227A
:102B700009212046FFF708FF003818BF01203BE776
:102B8000F0B5102387B0234C012200250126002731
:102B900002A920460195CDE902234FF48052CDE9E8
:102BA00004670CF0DBFA642004F056FB02A94FF432
:102BB00080522046CDE9046702261027CDE902673E
:102BC0000CF0CCFA0322102302A92046CDE90223FF
:102BD00000230422CDE904234FF480520CF0BEFA06
:102BE00040F23223042202A9019310232046CDE9AA
:102BF0000223019A012305924FF4805204930CF0B2
:102C0000ADFA40F6060120460CF0C8FA284607B097
:102C1000F0BD00BFFC6A06241C4B00221C494FF08B
:102C2000400C30B5054689B00220596007219A60F2
:102C30001A620124DA620A224FF4006EDC60069206
:102C40002022CDE9000104200821CDE90201032062
:102C50001021CDE9040108206946C3E904024FF4BC
:102C6000C072181DC3E906C24FF48052C3E909E2DD
:102C70000CF04AFA38B92846FFF782FF003818BF2F
:102C8000012009B030BD204609B030BDF86A0624E5
:102C900040410052614A0021D0B513688EB00A91BC
:102CA000002B40F0B9805E4B01214FF683700C245D
:102CB00011600221D3F8D4200026032742F4805269
:102CC000C3F8D420D3F8D42002F480520092009AA2
:102CD000D3F8E02042F01002C3F8E020D3F8E0205F
:102CE00002F010020192019AD3F8E02042F0400273
:102CF000C3F8E020D3F8E02002F040020292029AEA
:102D0000D3F8E02042F00802C3F8E020D3F8E02036
:102D100002F008020392039AD3F8E02042F4807292
:102D2000C3F8E020D3F8E02002F480720492049A01
:102D3000D3F8E02042F08002C3F8E020D3F8E0208E
:102D400002F080020592059AD3F8E02042F02002BA
:102D5000C3F8E020D3F8E02002F020020692069AA1
:102D6000D3F8E02042F00402C3F8E020D3F8E030CA
:102D70000C9403F0040307930323079A0B93CDE904
:102D8000080108A9274806F0FBFB48F23712022386
:102D900008A925480C94CDE90823CDE90A6706F077
:102DA000EFFB4CF20372022308A920480C94CDE9F2
:102DB0000823CDE90A6706F0E3FB40F2FF62022335
:102DC00008A91B480C94CDE90823CDE90A6706F051
:102DD000D7FB4FF60C72022308A916480C94CDE9D4
:102DE0000823CDE90A6706F0CBFB4FF63F0202232A
:102DF00008A911480C94CDE90823CDE90A6706F02B
:102E0000BFFB2022022308A90A480C94CDE90A67D7
:102E1000CDE9082306F0B4FB0EB0D0BDF46A062459
:102E2000004402580010025800180258000C0258C2
:102E300000200258001C0258001402582DE9F04FDF
:102E4000DFF8108406460D46144608F118002DEDF3
:102E5000028B89B000AF03F093F9D8F8183073B340
:102E6000D8F81C30D8F80490002B43690BBF4FF002
:102E7000080A4FF0100A4FF0020B4FF0040BB9F1A3
:102E8000000F2AD0A200EA46012B02F1070222F02D
:102E90000702ADEB020D6846ADEB020D694600F08E
:102EA0003F81022B00F0D680002B6FD02246C8470E
:102EB000D5462437BD46BDEC028BBDE8F08FD8F86F
:102EC0001C30002BF5D0D8F804904FF0080A4FF0D2
:102ED000020B4369B9F1000FD4D1FB61D8F800307F
:102EE000BB61002BE5D0D54803F0BCF96B46BBF1C4
:102EF000020F786108EE103AFB6900F083816A46A0
:102F00005146A2EBC40295466200EA46B2FBFBF2D0
:102F1000AAEBC40085460AEB8200EE46F861ADEBF1
:102F2000010DF8690EEB820CC7F810C0EC46ADEB52
:102F3000010D00EB8201CCF80400CCF8081001EB85
:102F400082013869E946CCF80C1000EB8201CCF81C
:102F500000A001EB8202C9E900E0C9E90212012BDD
:102F600000F06483022B00F06C82002B00F0808163
:102F7000620849466046BB69984718EE103A243704
:102F80009D46BD46BDEC028BBDE8F08F002C8DD078
:102F90001A46D8ED0C6A9FEDB27A8446331D36F995
:102FA00022E00CF1080C07EE90EA33F922E002323D
:102FB000F8EEE77A944267EE877A67EEA67A4CEDF0
:102FC000027A07EE90EAF8EEE77A67EE877A67EE24
:102FD000A67A4CED017AE2D8F9612246C847984EAC
:102FE000D8ED0D6A0020F9692B1D9FED9E7A9FEDAB
:102FF0009E6ADFED9E5A22E0F4EEC67AF1EE10FAF8
:10300000C0F2C88447F6FE72D1ED017A45F820205F
:1030100066EEA77AF4EEC77AF1EE10FA40F2F0808D
:10302000F4EEC67AF1EE10FAC0F2D58447F6FE72DD
:1030300043F820200230083184427FF639AFD1EDC9
:10304000007A66EEA77AF4EEC77AF1EE10FAD3D8DA
:103050003246D9E7002C3FF429AFD8ED0C6A8446FC
:103060009FED787A0022331D8E4656F822100CF11F
:10307000080C07EE901A53F822100232F8EEE77AA5
:10308000944267EE877A67EEA67A4CED027A07EEF5
:10309000901AF8EEE77A67EE877A67EEA67A4CED3B
:1030A000017AE2D871462246C7F81CE0C847664E4E
:1030B000D8ED0D6A0020F9692B1D9FED6A7A9FED0E
:1030C0006A6ADFF894C120E0F4EEC67AF1EE10FAF5
:1030D000C0F279843246D1ED017A45F8202066EEBF
:1030E000A77AF4EEC77AF1EE10FA40F28780F4EE98
:1030F000C67AF1EE10FAC0F25E84324643F8202020
:103100000230083184427FF6D3AED1ED007A66EE0C
:10311000A77AF4EEC77AF1EE10FAD5D86246DAE76C
:10312000002C3FF4C3AED8ED0C6A86469FED477A7B
:103130004FF0000C331D56F82C200EF1080E82F4CF
:103140000002A2F5000207EE902A53F82C200CF1A1
:10315000020CF8EEE77A82F400026445A2F5000260
:1031600067EE877A67EEA67A4EED027A07EE902A2E
:10317000F8EEE77A67EE877A67EEA67A4EED017A87
:10318000D9D8F9612246C847314ED8ED0D6A0020E2
:10319000F9692B1D9FED337A9FED336ADFF8BCC0D0
:1031A0001FE0F4EEC67AF1EE10FAC0F2FC8332466C
:1031B000D1ED017A45F8202066EEA77AF4EEC77AC1
:1031C000F1EE10FA18D9F4EEC67AF1EE10FAC0F268
:1031D000DA83324643F820200230083184427FF6F9
:1031E00067AED1ED007A66EEA77AF4EEC77AF1EE1B
:1031F00010FAD6D86246DBE76246EBE762467DE727
:10320000324615E7A100D6466208073121F00701D2
:10321000ADEB010DEA46ADEB010D6946ADEB0E0DD0
:103220000AEB8200EC46ADEB0E0D01EB8202F86179
:10323000E946CCE900A0C9E9001290E64C6B0624EF
:103240000280FFFF000000300082FF7F000000349A
:1032500082FF7F00306B0624007E00807E0080FFAE
:103260000000003804FF7FBF04FF7F3F00FEFF46E1
:10327000002C00F0C982BBF1020FD8F8242000F026
:10328000FA827969C7F8049002EB810E5FED0C5A5F
:103290008A00DCF808100EF104007A611A46DCF8A6
:1032A0000C303B61331DD7F810903D61FD69C7E9D3
:1032B00002CB8C46834636F92210D8ED0C7A06EE06
:1032C000101A33F9221006EE901A3EF92210B8EEC9
:1032D000C66A07EE101AF8EEE66A3BF92210B8EE5D
:1032E000C77A26EE256A66EEA56A27EE257A26EECF
:1032F000276A66EEA76A27EE277A07EE901A51082A
:103300000232F8EEE77A0AEB8100944280ED006A1F
:1033100005EB810067EEA57AC0ED006A0CEB810039
:1033200009EB810180ED007A98ED0C7A67EE877ADF
:10333000C1ED007ABFD8D7F804903D69D7E902CB38
:1033400060466208BB6949469847D8F82C307A69CC
:10335000D8ED0D6A1A441FED3D7A1FED3D6A2B1D15
:10336000904602F1040A5FED3F5A0022A84ED9E9C7
:1033700000EC51E0F4EEC67AF1EE10FAC0F2C7822A
:1033800047F6FE7045F822000CEB0100D0ED007A04
:1033900066EEA77AF4EEC77AF1EE10FA4BD9F4EEA6
:1033A000C67AF1EE10FAC0F2BA8247F6FE70BBF1AF
:1033B000020F43F822002BD0D9F808000844D0EDC2
:1033C000007A66EEA77AF4EEC77AF1EE10FA36D9F3
:1033D000F4EEC67AF1EE10FAC0F2CD8247F6FE7036
:1033E00048F82200D9F80C000144D1ED007A66EECD
:1033F000A77AF4EEC77AF1EE10FA1ED9F4EEC67A87
:10340000F1EE10FAC0F2AF8247F6FE714AF82210D0
:10341000023294427FF6B1AD51080EEB8100890073
:10342000D0ED007A66EEA77AF4EEC77AF1EE10FAE4
:10343000A0D83046A6E73046B9E73146E6E7304641
:10344000CEE7002C00F0E081BBF1020FD8F8243069
:1034500000F0E1817A69DCF8081003EB820EC7F80E
:1034600004909300DFED6B5A0EF1040000227B61A3
:10347000DCF80C303B61331DD7F810903D61FD69DD
:10348000C7E902CB8C46834656F82210D8ED0C7A59
:1034900007EE101A53F82210B8EEC76A07EE101A9A
:1034A0005EF82210F8EEC76A07EE101A26EE256ABB
:1034B0005BF82210B8EEC77A66EEA56A26EE276A98
:1034C00027EE257A66EEA76A27EE277A07EE901A8E
:1034D00051080232F8EEE77A0AEB8100944280ED5F
:1034E000006A05EB810067EEA57AC0ED006A0CEB7F
:1034F000810009EB810180ED007A98ED0C7A67EE8E
:10350000877AC1ED007ABFD8D7F804903D69D7E932
:1035100002CB60466208BB6949469847D8F82C3010
:103520007A69D8ED0D6A1A449FED3E7A9FED3E6AA6
:10353000131D9246DFF8E4C00022FB612B1D364EBE
:10354000D9E9008E4EE0F4EEC67AF1EE10FAC0F240
:10355000FC81304645F822000EEB0100D0ED007AE8
:1035600066EEA77AF4EEC77AF1EE10FA49D9F4EED6
:10357000C67AF1EE10FAC0F2EF813046BBF1020FCD
:1035800043F822002AD0D9F808000844D0ED007A88
:1035900066EEA77AF4EEC77AF1EE10FA35D9F4EEBA
:1035A000C67AF1EE10FAC0F2C98130464AF822001C
:1035B000D9F80C000144D1ED007A66EEA77AF4EE5A
:1035C000C77AF1EE10FA1ED9F4EEC67AF1EE10FACF
:1035D000C0F2AD813146F86940F8221002329442BF
:1035E0007FF6CBAC510808EB81008900D0ED007A62
:1035F00066EEA77AF4EEC77AF1EE10FAA3D8604629
:10360000A8E76046BAE76146E5E76046CEE700BF57
:103610000280FFFF000000300082FF7F007E0080FC
:103620000000003404FF7FBF04FF7F3F002C00F048
:10363000EB807A690021D8F82430C7F8109003EBAA
:10364000820ED7F81C909300FD610EF104021FED6D
:103650000C6A7B61331D154656F821204808D8EDC9
:103660000C6ABBF1020F82F40002A2F5000207EE21
:10367000902A53F8212082F40002B8EEE77AA2F5EE
:10368000000227EE067A07EE902A0AEB8002F8EE97
:10369000E77A27EE267A67EE867A82ED007A09EBE2
:1036A00080024FEA800067EEA67AC2ED007A27D04A
:1036B0005EF8212082F40002A2F5000207EE902AB3
:1036C00055F8212082F40002B8EEE77AA2F5000254
:1036D00027EE067A07EE902ADCF80820F8EEE77A63
:1036E000024427EE267A67EE867A82ED007A98ED1C
:1036F0000C7ADCF80C2067EE877A0244C2ED007A7F
:1037000002318C42A8D8D7F8109060466208BB6995
:103710004946FD699847D8F82C307A69D8ED0D6A8A
:103720001A441FED407A1FED406A131D9246DFF8E0
:10373000C4C20022FB612B1DAB4ED9E9008E4EE0C6
:10374000F4EEC67AF1EE10FAC0F2C580304645F8C4
:1037500022000EEB0100D0ED007A66EEA77AF4EEBF
:10376000C77AF1EE10FA49D9F4EEC67AF1EE10FA02
:10377000C0F2BF803046BBF1020F43F822002AD0CE
:10378000D9F808000844D0ED007A66EEA77AF4EE86
:10379000C77AF1EE10FA35D9F4EEC67AF1EE10FAE6
:1037A000C0F2AE8030464AF82200D9F80C0001443D
:1037B000D1ED007A66EEA77AF4EEC77AF1EE10FA50
:1037C0001ED9F4EEC67AF1EE10FAC0F28B803146C3
:1037D000F86940F82210023294427FF6CEAB5108CD
:1037E00008EB81008900D0ED007A66EEA77AF4EE4E
:1037F000C77AF1EE10FAA3D86046A8E76046BAE7A8
:103800006146E5E76046CEE7224649466046BB6929
:103810009847FFF7B2BBC7F810B0002298ED0C6ACA
:10382000331DDFED726AD7F81CB0786956F82210A4
:1038300007EE901A53F82210B8EEE77A07EE901AC6
:1038400051080232F8EEE77A27EE267A0AEB810E6B
:1038500094420BEB810167EEA67A27EE067A67EEBB
:10386000867A8EED007AC1ED007ADFD88300D7F832
:1038700010B07B614DE61A46C7F810B098ED0C6A9F
:10388000331DDFED5B6AD7F81CB0786936F922107A
:1038900007EE101A33F9221007EE901AB8EEC77A25
:1038A00051080232F8EEE77A27EE267A0AEB810E0B
:1038B00094420BEB810167EEA67A27EE067A67EE5B
:1038C000867A8EED007AC1ED007ADFD88300D7F8D2
:1038D00010B07B6134E5F0EE675AFEEEE45A15EE67
:1038E000900A34E7F0EE675AFEEEE45A15EE901AAD
:1038F0006EE7F0EE675AFEEEE45A15EE900A3AE7EC
:10390000F0EE675AFEEEE45A15EE900A4BE767EECA
:10391000A57AFDEEE77A17EE900A00B232E567EE7F
:10392000A57AFDEEE77A17EE900A00B23FE5F0EED9
:10393000675AFEEEE05A15EE901A4CE6F0EE675A22
:10394000FEEEE05A15EE900A30E6F0EE675AFEEE13
:10395000E05A15EE900AFDE5F0EE675AFEEEE05AE9
:1039600015EE900A0AE667EEA57AFDEEE77A17EE05
:10397000901A09B24AE567EEA57AFDEEE77A17EEEE
:10398000900A00B22CE5F0EE675AFEEEE45A15EE0E
:10399000902A1FE467EEA57AFDEEE77A17EE902AEB
:1039A00012B2FFF731BBF0EE675AFEEEE45A15EEA5
:1039B000902AFFF7FDBBF0EE675AFEEEE05A15EED7
:1039C000902AFFF79BBBF0EE675AFEEEE05A15EE29
:1039D000902AFFF780BB67EEA57AFDEEE77A17EE37
:1039E000902A12B2FFF724BB82FF7F000000003054
:1039F000000000387E0080FF30B5184C154685B0B9
:103A0000046004F1080EEC460FC98EE80F00D4EDF7
:103A1000047AF5EEC07A8CE80F00F1EE10FA1ADDA8
:103A2000B7EE006A94ED057A27EE277AC6EE276A8C
:103A300084ED0D7AC4ED0C6A6DB1204640F8185F34
:103A400002F09EFB064903690020064A2162A26239
:103A5000E36005B030BD012005B030BD306B0624F9
:103A6000002000300000003000680830704700BFC0
:103A7000B1F5807F03680A4628BF4FF48072B1F524
:103A8000807F9A6094BF0020012070470068183042
:103A900002F0D6BB70B504688AB0A369E1600BB3CD
:103AA00004F118056FF0F4134FF60B722846ADF8C9
:103AB0000C20CDE9013302F063FB8446EE46E66854
:103AC000BCE80F00AEE80F00BCE80F00AEE80F0046
:103AD0009CE803008EE8030069462846049602F03D
:103AE00057FA38BBE06918B304F11C056FF0F41302
:103AF0004FF60B722846ADF80C20CDE9013302F0E9
:103B00003FFB8446EE46E468BCE80F00AEE80F00D9
:103B1000BCE80F00AEE80F009CE803008EE803004D
:103B200069462846049402F033FA003818BF012091
:103B30000AB070BD01200AB070BD00BF30B5046886
:103B400083B00D46E3694BB1A3680020E26A616A65
:103B50009B00009004F11C0002F014FBA3680748CE
:103B6000A26A9B00216A009004F1180002F00AFB8F
:103B70000020C4E9005003B030BD00BF3D2E000856
:103B800010B4074B4FF07E513024002203201961FE
:103B90009C60D8605DF8044B5961C3E90622704708
:103BA000306B0624F6EE007A9FED166A20EE207A3E
:103BB0000160F7EE006A80ED036A80ED020A27EEED
:103BC000277AC6EE877AF4EEE67AF1EE10FA11DD86
:103BD000F0EE667A4FF07E514FF0000C0276002234
:103BE000C0ED017AC0F814C0016143768276C0ED61
:103BF000070A7047F4EEC67AF1EE10FAEAD5F0EE55
:103C0000467AE7E7000000000268037E128807EEAC
:103C1000902AFBEEC87A1BB1B7EE007A77EE677A8E
:103C2000D0ED056A90ED047A77EEE67A437E67EE92
:103C3000877A0BB1F1EE677A90ED030A90ED017A85
:103C400077EEC07AA7EE270A80ED030A704700BF1F
:103C500070B52DED028B84B0002615460446ADF8F4
:103C60000C1033460122039918300096B0EE408ABA
:103C700000F04EFFB5FA85F3002226605B0966600E
:103C8000A260257584ED048AA575637504B0BDEC4A
:103C9000028B70BD20EE007ADFED067A27EE000A77
:103CA00060EE277A80ED020AFCEEE77AC0ED017A39
:103CB000704700BF00FF7F4790ED046AB7EE007ABF
:103CC000DFED0E5A0346D0ED036A1830C5EE867A52
:103CD00077EEA67AF4EEC77AF1EE10FAC8BF77EE67
:103CE000C77A10ED047AB4EEE77A40ED037AF1EE8C
:103CF00010FACCBF597D997D00F0FCBF0000F04266
:103D0000704700BFF8B5134F3C687F2C07D980235C
:103D1000114A42F224411C463B60A2F87E100F4D2E
:103D20002B68012B0AD90C4E0D4D224631462846F0
:103D300000F0B2F90028F8D13860F8BD22460649F3
:103D4000074800F0A9F90028F7D12B683860013343
:103D50002B60F8BD6C6B0624706B0624686B062420
:103D6000F06B062430B4154C2168F1B14B1E144D94
:103D7000E81810F801298C4619460A2A01D00D2AA4
:103D800002D14BB1013BF4E70CF102037F2B10D9B8
:103D90008023236030BC70470122022323600D2062
:103DA0000A236854AB5430BC704701220223044DEF
:103DB000F4E70CF101026146F0E700BF6C6B0624EA
:103DC000706B062410B5094C02460B460848216862
:103DD0000844C1F1800113F0EBFF23681844206010
:103DE000FFF7C0FFFFF78EFF10BD00BF6C6B06240E
:103DF000706B06240FB400B583B004A951F8040B0E
:103E00000191FFF7DFFF03B05DF804EB04B07047EA
:103E100010B5044600210A4800F0B8F8002C094B00
:103E200014BF0222002208481A60FFF7E3FF074888
:103E3000FFF7E0FF0A20BDE8104002F0D7BA00BF4C
:103E4000F06B0624686B06247491010884910108C4
:103E5000064A0749074808B512F062F9034A0449BF
:103E60000548BDE8084012F05BB900BF000000241F
:103E7000013D0008F06B0624F46B0624DFED167A92
:103E80008C46B4EE670A10B504468646F1EE10FA89
:103E90002DED028B80ED080A48BFB0EE670AC0ED39
:103EA000090AB0EE608A80F83420BCE80F00AEE862
:103EB0000F009CE80F008EE80F0012F077FBF0EE89
:103EC000407AB0EE480AC4ED0A7A12F06FFB84ED36
:103ED0000B0ABDEC028B10BD95BFD63390F8343081
:103EE00010B50446032B4BD8DFE803F03B2A15023C
:103EF000FFF78AFE60EE006AD4ED087A94ED097A45
:103F000026EE800A37EE677AE0EE077AC4ED0C7A87
:103F1000B0EE670A10BDFFF777FE94ED0A7AD4ED94
:103F20000B7A77EEC77AA0EE277AB0EE470A12F046
:103F3000CBFAF0EE407A84ED0C0AB0EE670A10BDC1
:103F4000FFF762FED4ED087A94ED097A20EE000ABC
:103F500037EE677AE0EE077AB0EE670AC4ED0C7AC6
:103F600010BDFFF751FED4ED087A94ED097A37EED3
:103F7000677AE0EE077AB0EE670AC4ED0C7A10BDFE
:103F8000D0ED0C7AC4E700BF704700BF012910B51F
:103F900006D0022915D051B1BDE8104007F0AEBEE1
:103FA0000A46344834490CF0D3FBE8B1FEE7334B02
:103FB0000A46334C334934481C600CF0C9FB68B1E5
:103FC000FEE701222C492B480CF0C2FB00B1FEE7B2
:103FD0002E4928480CF0E0FBC0B1FEE72B492A48E7
:103FE0000CF0DAFB60B1FEE7284922480CF0D4FB64
:103FF00000B1FEE726491F480CF04AFB08B3FEE774
:10400000244921480CF044FBA8B1FEE72049194897
:104010000CF03EFB00B1FEE716480CF0E5FB024653
:1040200040B9164B164C174917481C600CF090FB12
:1040300068B1FEE7FEE714480CF0D6FB0028ABD0D1
:10404000FEE70C480CF0D0FB0028A5D0FEE70F4996
:104050000D480CF0A1FB00B1FEE70E490A480CF038
:1040600017FB00B1FEE708480CF0BEFB002893D018
:10407000FEE700BFD46E0624DC000024B0710624E5
:10408000893F0008C0000024F86B06244401002486
:104090009C00002488000024084691B208B502F074
:1040A0008FFC003818BF012008BD00BF014806F092
:1040B000BBBE00BF00A10624014806F0B5BE00BF8C
:1040C00000A10624014806F0AFBE00BF00A10624EF
:1040D00010B4002383B00324018080F8503080F8AE
:1040E0005120C0E9014303B05DF8044B704700BFA5
:1040F0002DE9F04FBE4F0024BE4D8DB0037007F187
:1041000040034260804616468946202221463846B2
:10411000C5F88835C5F88475CDE90244CDE9044475
:10412000CDE90644CDE90844CDE90A4413F096FCF4
:104130002022214605F26250C5F85145C5F8554583
:10414000C5F85945C5F85D4513F088FC85F85065FC
:10415000D8F8043085F86846002B62D005F5AA6AC5
:1041600009F1500B264609EB0401281952220136A9
:1041700013F04CFC4FF0000327F8023B1BF804300F
:104180000AF8013F002B70D0D8F804304FF001023C
:1041900054349E4285F86826E5D3974A082195F85D
:1041A00050350026C5F88C254FF48022934800270F
:1041B000C5F8A4350023C5F890250122C5F89C1543
:1041C00095F86816C5F8943585F8A035C5F8982592
:1041D000C0E9006700293ED0C5F8B82585F8A135AB
:1041E00085F8A835002298F80030C5F8BC25C5F838
:1041F000C025002B40D0012200200121013B85F881
:10420000C4257F4AC2E90001082B37D8DFE813F044
:10421000BD00C200C700CC00D100D600DB00E10029
:10422000E800C5F89435F6B285F8A0350020724B49
:104230000021C5F8A465C5F88C354FF48023C5F876
:1042400090350123C5F898350823C5F89C3505F548
:10425000B663C3E90001012385F8A135002385F881
:10426000A8350323C5F8B835BCE7D8F80430543472
:10427000B3423FF678AF90E785F8C435614803F064
:104280004FFC034608B1FFBEFEE702A95D4802935A
:1042900003F0A6FD0446002875D1042340F2FF7206
:1042A0000A90CDE9082395F85035002B00F0F580F1
:1042B00006234FF05409019309FB045393F851303E
:1042C000072B07D8DFE803F0595C5653504D4A04DA
:1042D0000723079326B206EB4606C6EBC60605EB98
:1042E0008608B700404600F035FB09FB045393F8FD
:1042F0005030042B00F3AD80022B00F3C08000F09F
:10430000BC802B19002283F8402515F8262098F848
:104310000130002A7CD0022A00F08D80012A40F072
:10432000B480012B00F0B380002B374B18BF002363
:10433000059305A9019B3348069302F0F1FF00287D
:1043400040F0AE80013495F85035E4B2A34240F21B
:10435000A4802E4B53F824300193ADE70623079336
:10436000B8E705230793B5E704230793B2E70323D0
:104370000793AFE702230793ACE700230793A9E76E
:1043800001230793A6E7FFBEFEE70320402142E991
:10439000020173E70720602142E902016EE70F2066
:1043A000802142E9020169E71F20A02142E90201C0
:1043B00064E73F20C02142E902015FE77F20E0215E
:1043C00042E902015AE7FF204FF4807142E90201FD
:1043D00054E740F2FF104FF4907142E902014DE7BB
:1043E00040F2FF304FF4A07142E9020146E700BFFE
:1043F00000400030B871062400200240687706248F
:1044000088770624447706240002B0259491010899
:10441000062B36D0072B3CD0022B49D0032B49D09A
:10442000002B4BD0012B47D0042B49D0052B254B1B
:1044300018BF00237CE7042B25D0052B2BD08BB392
:10444000012B31D0022B31D0032B1F4B18BF00237F
:104450006EE70323143705EB040B4FF0000A2F44DB
:104460008BF8403538460AF1010A00F073FA9BF8E0
:10447000403514375345F5DC47E70123EAE70223CB
:10448000E8E7124B54E7124B52E7002350E7114B79
:104490004EE7114B4CE7114B4AE70DB0BDE8F08FEA
:1044A000FFBEFEE70E4B43E70E4B41E70E4B3FE7E7
:1044B0000E4B3DE70E4B3BE70E4B39E70E4B37E714
:1044C0000E4B35E70000B84F002090360800900CE6
:1044D0001000C0102000F0148000501D0001802149
:1044E0000004002A0008302E001060320040C03A5C
:1044F0000080F03E00005247000021430000844B42
:1045000038B5094C40F2FF724FF0011104F28C559E
:10451000284603F013FC94F85025D4F88415284657
:10452000BDE8384003F072B9B8710624034B0F2977
:10453000D3F8840598BF00EB41007047B87106249A
:10454000244B02689A4200D07047234A0023234834
:10455000D2F8D81030B5224C41F0200183B0C4F815
:10456000F0050920C4F8F83504F5BE65C4F8F40573
:104570004FF48060C2F8D8104FF40061D2F8D82010
:10458000C4F8000694F8680602F02002C4F8FC356E
:1045900098420192C4F804164FF40051C4F8103642
:1045A0002846C4F81436019B14BF00234FF48073CF
:1045B000C4F80816C4F80C3603F03EFE08B1FFBE7E
:1045C000FEE704F28C53C4F8D855C4F8283603B07B
:1045D00030BD00BF002002400044025840000240AD
:1045E000B8710624014804F079BC00BFA8770624FE
:1045F00002682DE9F84F504B9A4201D0BDE8F88F80
:104600004E4D95F86836002BF8D095F85035002BB4
:104610007BD0002405F13C0905F2625605F5AA6736
:10462000A04613E003F0010117F811BCA9F128001E
:1046300000F060FBBBF1010F25D895F8503501342F
:1046400009F154090236A2B293422BD917F8012F6F
:10465000002AF4D0D5F884350021327833F81400DC
:10466000D5F8883503EB041323F81200338801339F
:104670009BB233805FFA83FA3A789A42D2D88A465C
:10468000A6F80080D0E7CAF34001A9F1140000F0B9
:1046900031FBBBF1020FCAF38001CED0484600F0D7
:1046A00029FBCAE7002395F86806254909229842A4
:1046B000C5F8F8354FF48060C5F8F015C5F8F42555
:1046C0004FF400614FF40052C5F8FC3508BF4FF4B9
:1046D0008073C5F80006C5F80416C5F80826002240
:1046E0001848C5F80C36C5F81026C5F8142603F08E
:1046F000A3FD08B1FFBEFEE795F85025D5F8841557
:104700001148BDE8F84F03F081B80D4909224FF474
:104710008060C5F8F835C5F8F0154FF40061C5F8AC
:10472000F4254FF40052C5F8FC35C5F80006C5F86D
:104730000416C5F80826D2E700200240B871062406
:1047400040000240A877062444770624704700BF43
:104750000C4B4FF60B71002203F5A8601980DA604C
:1047600099821A6219855A6399879A64C3E901226A
:10477000C3E90622C3E90B22C3E91022543398424D
:10478000ECD17047B871062484460FC98CE80F003D
:104790009CF800300B2B30D09CF801200F2A2CD82D
:1047A000022900B591B041D0032902D0012900D0DF
:1047B00000210C91DCF80810012902D0022918BF51
:1047C00000210D91DCF80C10022904D0032902D03D
:1047D000012918BF00210A2B0E910FD85B4800EB6E
:1047E0008320CCF810000A2B17D8DFE803F0A09242
:1047F0008476685A4C3E3022090070470020F0E76A
:10480000534BD3F8E01041F48061C3F8E010D3F8C3
:10481000E03003F480630A930A9B01230BA99340C1
:104820000B9304F0ADFE11B05DF804FB11210C9167
:10483000C0E7474BD3F8E01041F40071C3F8E01033
:10484000D3F8E03003F400730993099BE5E7404B8C
:10485000D3F8E01041F48071C3F8E010D3F8E030F1
:1048600003F480730893089BD7E7394BD3F8E01023
:1048700041F08001C3F8E010D3F8E03003F080038A
:104880000793079BC9E7324BD3F8E01041F0400192
:10489000C3F8E010D3F8E03003F040030693069B22
:1048A000BBE72B4BD3F8E01041F02001C3F8E01038
:1048B000D3F8E03003F020030593059BADE7244BCC
:1048C000D3F8E01041F01001C3F8E010D3F8E03065
:1048D00003F010030493049B9FE71D4BD3F8E010F3
:1048E00041F00801C3F8E010D3F8E03003F008030A
:1048F0000393039B91E7164BD3F8E01041F00401BA
:10490000C3F8E010D3F8E03003F004030293029BF5
:1049100083E70F4BD3F8E01041F00201C3F8E01039
:10492000D3F8E03003F002030193019B75E7084BD5
:10493000D3F8E01041F00101C3F8E010D3F8E03003
:1049400003F001030093009B67E700BF00000258DB
:104950000044025803780B2B2DD042780F2A2AD816
:104960004168022910B590B03ED0032902D0012938
:1049700000D000210C918168012902D0022918BFC2
:1049800000210D91C168022904D0032902D0012918
:1049900018BF00210A2B0E910ED85B4C04EB832428
:1049A00004610A2B17D8DFE803F009A09284766827
:1049B0005A4C3E30220070470024F1E7534BD3F8A5
:1049C000E01041F00101C3F8E010D3F8E03003F04B
:1049D00001030093009B01230BA9204693400B93F6
:1049E00004F0CEFD10B010BD11210C91C3E7474B70
:1049F000D3F8E01041F48061C3F8E010D3F8E03060
:104A000003F480630A930A9BE5E7404BD3F8E01078
:104A100041F40071C3F8E010D3F8E03003F4007300
:104A20000993099BD7E7394BD3F8E01041F4807123
:104A3000C3F8E010D3F8E03003F480730893089BC8
:104A4000C9E7324BD3F8E01041F08001C3F8E01021
:104A5000D3F8E03003F080030793079BBBE72B4BB1
:104A6000D3F8E01041F04001C3F8E010D3F8E03093
:104A700003F040030693069BADE7244BD3F8E01008
:104A800041F02001C3F8E010D3F8E03003F0200338
:104A90000593059B9FE71D4BD3F8E01041F01001F3
:104AA000C3F8E010D3F8E03003F010030493049B44
:104AB00091E7164BD3F8E01041F00801C3F8E0107D
:104AC000D3F8E03003F008030393039B83E70F4B15
:104AD000D3F8E01041F00401C3F8E010D3F8E0305F
:104AE00003F004030293029B75E7084BD3F8E01030
:104AF00041F00201C3F8E010D3F8E03003F0020304
:104B00000193019B67E700BF000002580044025870
:104B100010B592B0ADF804100180C9B2149C0B29F5
:104B2000C460C0E901233FD090F801C0BCF10F0F71
:104B30003AD8022A3FD0032A02D0012A00D000220C
:104B40000E92012B02D0022B18BF0023022C0F93D0
:104B50002CD0032C2AD0012C28D000230A29109312
:104B600027D85C4A02EB812202610A2914D8DFE8C7
:104B700001F0A39587796B5D4F4133250600564BB5
:104B8000D3F8E01041F48061C3F8E010D3F8E030CE
:104B900003F480630C930C9B01230DA9104603FAC8
:104BA0000CF30D9304F0ECFC12B010BD0A29109424
:104BB000D7D90022D8E711220E92C2E7464BD3F88C
:104BC000E01041F40071C3F8E010D3F8E03003F4D2
:104BD00000730B930B9BDFE73F4BD3F8E01041F4DE
:104BE0008071C3F8E010D3F8E03003F480730A93C7
:104BF0000A9BD1E7384BD3F8E01041F08001C3F8AD
:104C0000E010D3F8E03003F080030993099BC3E779
:104C1000314BD3F8E01041F04001C3F8E010D3F875
:104C2000E03003F040030893089BB5E72A4BD3F824
:104C3000E01041F02001C3F8E010D3F8E03003F0B9
:104C400020030793079BA7E7234BD3F8E01041F01D
:104C50001001C3F8E010D3F8E03003F0100306931E
:104C6000069B99E71C4BD3F8E01041F00801C3F80C
:104C7000E010D3F8E03003F008030593059B8BE7C1
:104C8000154BD3F8E01041F00401C3F8E010D3F85D
:104C9000E03003F004030493049B7DE70E4BD3F84C
:104CA000E01041F00201C3F8E010D3F8E03003F067
:104CB00002030393039B6FE7074BD3F8E01041F027
:104CC0000101C3F8E010D3F8E03003F001030293D0
:104CD000029B61E7000002580044025808B5012118
:104CE00043780069994089B204F04CFE003818BF3F
:104CF000012008BD01230A464178006903FA01F149
:104D000089B204F045BE00BF10B5002386B0122260
:104D100004460493CDE902230368022B1FDC002B19
:104D200001DB0423059323790A2B1FD8114800EBDC
:104D300083206279012301A99340019304F020FCB0
:104D4000A3790A2B14D80B4800EB8320E2790123C6
:104D500001A99340019304F013FC06B010BD032B8E
:104D6000E1D10623059323790A2BDFD90020E0E760
:104D70000020EBE700000258634A0368934210B535
:104D80008CB028D0614A934258D0614A934200F0D7
:104D90009480604A934201D00CB010BD5E4C5F48D5
:104DA000D4F8E03043F00203C4F8E030D4F8E03047
:104DB00003F002030A930A9BFFF7A6FFD4F8F4302E
:104DC00043F08003C4F8F430D4F8F43003F08003E7
:104DD0000B930B9BE0E7504C5148D4F8E03043F084
:104DE0000203C4F8E030D4F8E03003F0020301938A
:104DF000019BFFF789FFD4F8E83000221F2043F41D
:104E000000131146C4F8E830D4F8E83003F4001376
:104E10000293029BD4F8D83043F00103C4F8D83091
:104E2000D4F8D83003F001030393039B03F052F846
:104E30001F200CB0BDE8104003F08AB8364C39484A
:104E4000D4F8E03043F08003C4F8E030D4F8E03028
:104E500003F080030493049BD4F8E03043F0020392
:104E6000C4F8E030D4F8E03003F002030593059B6A
:104E7000FFF74AFFD4F8E8300022212043F48003F2
:104E80001146C4F8E830D4F8E83003F48003069300
:104E9000069BD4F8D83043F00103C4F8D830D4F8D6
:104EA000D83003F001030793079B03F013F8212088
:104EB0000CB0BDE8104003F04BB81B48FFF724FFCF
:104EC000154B00224820D3F8E840114644F4000472
:104ED000C3F8E840D3F8E84004F400040894089CC0
:104EE000D3F8D84044F00104C3F8D840D3F8D83000
:104EF00003F001030993099B02F0ECFF48200CB07A
:104F0000BDE8104003F024B80054004000580040B1
:104F1000005C0040001C005800440258C87A062477
:104F20002878062408790624E87906242DE9F04338
:104F30001A4B87B000254FF010099E46EC46184BDF
:104F4000FF22E04667461A700EF118060EF1300493
:104F5000CDE90055CDE90255ADF80090BCE80F0051
:104F6000CDE90455AEE80F009CE803000095ADF8CC
:104F700000908EE80300B8E80F000FC69CE803001D
:104F80000095ADF8009086E803000FCF0FC49CE8B1
:104F9000030084E8030007B0BDE8F0833800002474
:104FA0002478062410B5EFF3108472B6084B1A78F3
:104FB000120602D504B962B610BD1878054B40B28E
:104FC000C0EBC00003EB4010143003F087FFF1E7A3
:104FD0002478062428780624014805F013BE00BF73
:104FE000B4780624014805F00DBE00BF947906246C
:104FF000014805F007BE00BF747A06242DE9F0438E
:105000000D6885B0404EC5EBC503032D4FEA43172D
:1050100006EB4313036041DCCA680C46012A3DD805
:105020004FEAC5084CD020689C466168A8EB05098A
:10503000A2680DF1100EE36806EB4919ACE80F0009
:10504000324B227C8CF80020D9F808C00FCB0EE937
:105050000F000EEB8503BCF1010F53F8103CC9F8AB
:105060008C3032D0BCF1020F43D0BCF1000F36D0EF
:10507000227C8C37A8EB050500233744520006EB51
:10508000451601213846C6F8AC30C6E92521C6E9E7
:105090002733C6E9293305F077FA18B1012005B0A6
:1050A000BDE8F0830146384605F0B8FD0028F5D18B
:1050B0000146384605F0DCFD003818BF0120EEE758
:1050C0000A7C103A672AAED9E8E701F03DFB104BA5
:1050D00098420CBF0F4B104BC9F89030C8E701F055
:1050E00033FB0B4B98420CBF0C4B0D4BC9F8903067
:1050F000BEE701F029FB064B98420CBF094B0A4B57
:10510000C9F89030B4E700BF287806248C8F0108D6
:10511000000E27072D0FB0303211D0205F43906072
:105120008A62E030200BA0101A0980102DE9F041AE
:10513000D0F8008082B00D4617461E4608F18C0458
:10514000204605F067FD2028FAD1D8F80C3073B955
:105150006D002046089C33463A46A9B2009405F0FB
:1051600069FA003818BF012002B0BDE8F081089B41
:1051700032463946204605F01BFCF2E7094B6FF03A
:10518000F41110225960C3F8E4101A7483F8F02067
:10519000C3F8C41183F8D021C3F8A41283F8B02255
:1051A000704700BF2878062430B5002395B04FF42F
:1051B0008071062204460B9306921393CDE90C13DB
:1051C000CDE90E33CDE9113301F0C0FA07282BD019
:1051D00004F1100541F2883206A9284606F0BEFE09
:1051E00028B10123184684F85C3015B030BD022286
:1051F000022306A92846CDE9002310220123CDE988
:10520000022300224FF48003CDE9042305224FF04E
:10521000807306926A460F9341F2883307F00AF8CA
:105220000028DED115B030BD0323012084F85C30A6
:1052300015B030BD0000000070B50023A4B04FF0E1
:1052400080724FF480750446ADF806300D93CDE9B9
:1052500010320122CDE90E53CDE91223CDE91433EA
:10526000002943D0F02300F1100508AEADF8063058
:10527000C02341F2883231462846089306F06EFE7C
:1052800028B10123184684F85C3024B070BD41F287
:1052900088320DF10601284606F0CAFE03460028B2
:1052A000EFD105224FF480711E93284616924FF0DD
:1052B00080721B9321931F9202AA9FED1F7BCDE961
:1052C0001C13CDE922338DED027B9FED1D7B41F256
:1052D000883316A98DED047B9FED1B7B8DED067B3E
:1052E00006F0A8FF0028CCD124B070BD00F1100555
:1052F00008AE612341F2883231462846089306F011
:105300002DFE0028BDD141F288320DF1060128465C
:1053100006F00CFF0028B4D1BDF80630204623F07B
:10532000780343F04003ADF80630FFF73DFF002857
:105330009ED0A6E7AFF3008000000000010000004F
:10534000100000000100000000000000000040000C
:105350002DE9F04F00234FF4807501264FF080783F
:1053600004462DED028BABB08DF8073013932193DB
:10537000299314950E96CDF85C80CDE91533CDE9CF
:105380001863CDE91A33CDE92253CDE92433CDE9B1
:10539000273306231C9301F0D9F9072808D004F11C
:1053A000100741F288321CA9384606F0D7FD40B1FB
:1053B0000123184684F85C302BB0BDEC028BBDE8AD
:1053C000F08F4FF0020A4FF0020B4FF0050941F247
:1053D000883308AA1CA93846CDF89480CDF870907F
:1053E0009FED2F8BCDE908AB4FF0000A4FF4800BF7
:1053F0008DED0A8BCDE90CAB06F01CFF0028D7D150
:1054000041F2883238460EA906F0A8FD0028CFD117
:10541000402341F288320DF1070138468DF80730FC
:1054200006F006FE0028C3D141F288330EA902AA75
:105430003846CDF83890CDF85C809FED1B7BCDE9E8
:1054400006AB8DED027B9FED1A7B8DED047B06F0A4
:10545000F1FE03460028ABD1CDF870904FF0010962
:10546000CDF894804FF00008219308AA29931CA935
:1054700038462295CDE92333CDE9273341F28833ED
:105480008DED0A8BCDE90CABCDE9088906F0D2FE93
:10549000002891D0304684F85C608DE7AFF300803F
:1054A0001000000001000000400000004300000068
:1054B00000800000010000002DE9F04F00234FF4B0
:1054C000807601254FF0807804462DED028BABB03D
:1054D000CDE9153313932193299314960E95CDF8A6
:1054E0005C80CDE91853CDE91A33CDE92263CDE9CB
:1054F0002433CDE9273306231C9301F027F907282D
:1055000008D004F1100741F288321CA9384606F091
:1055100025FD40B10123184684F85C302BB0BDEC6A
:10552000028BBDE8F08F4FF0020A4FF0020B4FF0F4
:10553000050941F2883308AA1CA93846CDF89480A1
:10554000CDF870909FED308BCDE908AB4FF0000A9D
:105550004FF4800B8DED0A8BCDE90CAB06F06AFEA3
:105560000028D7D141F2883238460EA906F0F6FC61
:105570000028CFD1402341F288320DF1070138468F
:105580008DF8073006F054FD0028C3D19DF8073090
:1055900008AA0C90FF2008934FF400430EA90B9526
:1055A000CDF83890CDF85C80CDE909034FF4800345
:1055B00038460D9341F2883306F03CFE034600283E
:1055C000A8D10022219329931CA938462296CDF810
:1055D0007090CDF89480CDE92333CDE927330123B2
:1055E000CDE9022341F2883302AA8DED048BCDE987
:1055F00006AB06F01FFE002890D0284684F85C50C9
:105600008CE700BFAFF30080100000000100000035
:1056100070B50122AAB004460D465F48C02104F0CF
:10562000B7F900265D4B06965B4895FAA5F5CDE9DE
:105630000466D3F8E02042F02002C3F8E020C02244
:10564000D3F8E03003F0200301930123019902A96C
:10565000CDE9022303F094FF142001F0FDFD324652
:10566000C0214D4804F094F9142001F0F5FD012209
:10567000C021494804F08CF9142001F0EDFD01230C
:10568000474AE6612261C4E90533002D77D0B5FAB7
:1056900085F1013900234FF4807604F11005C4E947
:1056A00008162846C4E90B3306F0EAFB30B10123A3
:1056B0001D4684F85C3028462AB070BD66231690DB
:1056C000179041F2883213900EA91B900E93CDE9EA
:1056D0001460CDE91900284606F040FC0028E6D108
:1056E00099230EA941F2883228460E9306F036FC23
:1056F0000028DCD105230121249008AA21902790BD
:105700001C934FF08073CDE92260CDE92800102072
:10571000259341F28833CDE90A019FED1D7B0020DE
:105720004FF48001CDE90C011CA928468DED087BC2
:1057300006F080FD0028BAD12046FFF7BDFE002804
:10574000B5D1284606F0F8FB05460028AFD12379ED
:105750000A2B18D963790121994004F04BF8A379F9
:105760000A2B0ED80F4800EB83200126E17906FAB8
:1057700001F104F03FF8266684F864609BE71F217E
:1057800088E70020F1E7074800EB8320E2E700BF4D
:1057900000000000010000000014025800440258FC
:1057A00000500052000002582DE9F041684CA2B0B0
:1057B0000D46046000F0CAFF07284BD02868234636
:1057C000AA68696807C3AA89184620F8042B267BB3
:1057D000677B06F0B1FB002834D1012E94F86430C9
:1057E00014BF4FF480154FF400052366002B39D009
:1057F000584B95FAA5F523610123C4E9053300232D
:10580000E361002D6ED0B5FA85F1013900234FF424
:1058100080785148C4E90818C4E90B3306F030FB1E
:1058200080B966230B90139041F2883206A9069343
:10583000CDE90C80CDE90E00CDE91100464806F017
:105840008DFBA0B101231D4684F85C30284622B0B0
:10585000BDE8F08101250323284684F85C3022B09E
:10586000BDE8F08129462046FFF7D2FEC0E7992324
:1058700041F2883206A93848069306F06FFB0028EB
:10588000E0D105231C9019906A4614934FF0807361
:10589000219014A91D9341F288339FED277BCDE918
:1058A0001A80CDE91F008DED007B9FED257B2A48F6
:1058B0008DED027B9FED247B8DED047B06F0BAFC21
:1058C0000028BFD131462248FFF7B6FC0028B9D1E5
:1058D0001F48FFF73DFD05460028B3D127B102233D
:1058E0002366B3E71F2191E7EB23002600271890DA
:1058F00014934FF440631F9006AA1B934FF4005378
:10590000209014A917934FF4404313481C93A023ED
:10591000CDF868801693062319934FF08053219396
:105920004FF04073CDE906671D9306F0FBFC00289D
:10593000D5D087E7AFF30080000000000100000031
:105940001000000001000000000000000000400006
:10595000A87B062400500052B87B06245E4B0268E8
:105960002DE9F0419A428CB04FF00004CDE9074494
:10597000CDE909440B9402D00CB0BDE8F081574B3F
:10598000574DD3F8D420574F42F48042564EDFF89B
:105990005C81C3F8D420D3F8D42002F48042009272
:1059A000009ADA6F42F48042DA67DA6F22F48042BA
:1059B000DA67D3F8E02042F04002C3F8E020D3F8E1
:1059C000E02002F040020192019AD3F8E02042F078
:1059D0002002C3F8E020D3F8E02002F02002029277
:1059E000029AD3F8E02042F01002C3F8E020D3F886
:1059F000E02002F010020392039AD3F8E02042F074
:105A00000202C3F8E020D3F8E03003F0020304936D
:105A1000049B22E014F0FC0252D103F1200155F85E
:105A2000211008780A2839D891F801C0012109927B
:105A300007EB802201FA0CF107910221CDF81480C6
:105A4000089103210A910CA90B4413F81C3C07A9E7
:105A5000104601340B9303F093FD2A6EE3B2002A43
:105A6000D8D0052B2CD803F11A0255F822100A7849
:105A70000A2A18D9497801228A4002210792002275
:105A8000CDE9081203210A910CA90B4496E8030002
:105A90000590ADF8181013F81C3CD8E748780121A0
:105AA00009928140C8E74878012107EB82228140B2
:105AB000022007910021CDE9080103210A91E3E7C3
:105AC00000225C20114602F005FA5C2002F040FA48
:105AD0000CB0BDE8F08100BF0050005200440258F5
