:020000040800F2
:1000000000000220090A0008FD0900080D79000817
:10001000FD090008FD090008FD09000800000000B6
:10002000000000000000000000000000FD090008C2
:10003000FD09000800000000FD0900089178000893
:10004000FD090008FD090008FD090008FD09000878
:10005000FD090008FD090008FD090008FD09000868
:10006000FD090008FD090008FD0900087974000871
:1000700085740008C5560008917400089D74000836
:10008000954C010851620008FD090008FD090008AF
:10009000FD090008FD090008FD090008FD09000828
:1000A000FD090008FD090008FD090008FD09000818
:1000B000E13D0108ED3D0108F93D010885620008B8
:1000C000FD09000891620008FD09000829360108B1
:1000D00035360108C94A0108F54A0108294B0108CB
:1000E000FD090008FD09000800000000FD090008E6
:1000F000FD090008FD090008FD090008FD090008C8
:10010000FD090008FD090008053E01084136010807
:100110005D4B0108914B0108FD090008FD0900082D
:10012000FD090008FD090008653601089936010837
:10013000C94C0108FD090008FD090008FD09000877
:1001400000000000000000000000000000000000AF
:10015000FD090008FD090008FD090008C54B01085C
:100160009D620008FD090008A1780008C578000814
:10017000FD090008E9780008FD090008FD090008EC
:10018000FD090008FD090008F94B01082D4C010884
:100190004D36010859360108FD090008FD0900081F
:1001A000FD090008FD090008FD090008FD09000817
:1001B0006D710008FD090008FD090008FD0900082F
:1001C000FD090008FD090008FD090008FD090008F7
:1001D000FD090008FD090008FD090008FD090008E7
:1001E000FD090008FD090008FD090008FD090008D7
:1001F000FD090008FD090008FD090008FD090008C7
:10020000FD090008FD090008FD090008FD090008B6
:10021000FD090008FD090008FD090008FD090008A6
:10022000FD090008FD090008FD09000800000000A4
:10023000FD090008FD09000800000000FD09000894
:10024000FD090008FD090008FD090008FD09000876
:10025000FD090008FD090008FD090008FD09000866
:10026000FD090008FD090008FD090008FD09000856
:10027000FD090008FD090008614C010800000000AC
:10028000FD090008FD090008FD0900080000000044
:0802900000000000FD09000858
:1002A00010B5054C237833B9044B13B10448AFF3B0
:1002B00000800123237010BD100400240000000002
:1002C00020CA010808B5034B1BB103490348AFF32B
:1002D000008008BD000000001404002420CA0108AA
:1002E00001F0FF01102A2BDB10F0070F08D010F8E7
:1002F000013B013A8B422DD010F0070F42B3F6D1EB
:10030000F0B441EA012141EA014122F007047FF003
:1003100000070023F0E80256083C85EA010586EA5A
:10032000010685FA47F5A3FA87F586FA47F6A5FA96
:1003300087F68EB9EED1F0BC01F0FF0102F00702A2
:1003400032B110F8013B013A83EA010313B1F8D14D
:100350000020704701387047002D06BF354603382E
:10036000073815F0010F07D1013015F4807F02BF67
:10037000013015F4C03F0130F0BC0138704700BFB8
:1003800081F0004102E000BF83F0004330B54FEA46
:1003900041044FEA430594EA050F08BF90EA020FB3
:1003A0001FBF54EA000C55EA020C7FEA645C7FEA46
:1003B000655C00F0E2804FEA5454D4EB5555B8BF69
:1003C0006D420CDD2C4480EA020281EA030382EADA
:1003D000000083EA010180EA020281EA0303362D6C
:1003E00088BF30BD11F0004F4FEA01314FF4801C3F
:1003F0004CEA113102D0404261EB410113F0004F51
:100400004FEA03334CEA133302D0524263EB430307
:1004100094EA050F00F0A780A4F10104D5F1200EA5
:100420000DDB02FA0EFC22FA05F2801841F1000100
:1004300003FA0EF2801843FA05F359410EE0A5F1D4
:1004400020050EF1200E012A03FA0EFC28BF4CF005
:10045000020C43FA05F3C01851EBE37101F00045BB
:1004600007D54FF0000EDCF1000C7EEB00006EEBC8
:100470000101B1F5801F1BD3B1F5001F0CD3490852
:100480005FEA30004FEA3C0C04F101044FEA4452A9
:1004900012F5800F80F09A80BCF1004F08BF5FEA30
:1004A000500C50F1000041EB045141EA050130BD10
:1004B0005FEA4C0C404141EB0101013C28BFB1F522
:1004C000801FE9D291F0000F04BF01460020B1FA6D
:1004D00081F308BF2033A3F10B03B3F120020CDA40
:1004E0000C3208DD02F1140CC2F10C0201FA0CF01E
:1004F00021FA02F10CE002F11402D8BFC2F1200C83
:1005000001FA02F120FA0CFCDCBF41EA0C01904038
:10051000E41AA2BF01EB0451294330BD6FEA040481
:100520001F3C1CDA0C340EDC04F11404C4F120026C
:1005300020FA04F001FA02F340EA030021FA04F37E
:1005400045EA030130BDC4F10C04C4F1200220FAD5
:1005500002F001FA04F340EA0300294630BD21FA13
:1005600004F0294630BD94F0000F83F4801306BFD9
:1005700081F480110134013D4EE77FEA645C18BFCD
:100580007FEA655C29D094EA050F08BF90EA020F64
:1005900005D054EA000C04BF1946104630BD91EA5C
:1005A000030F1EBF0021002030BD5FEA545C05D15F
:1005B0004000494128BF41F0004130BD14F580049E
:1005C0003CBF01F5801130BD01F0004545F0FE4112
:1005D00041F470014FF0000030BD7FEA645C1ABF47
:1005E000194610467FEA655C1CBF0B46024650EA7E
:1005F000013406BF52EA033591EA030F41F40021AA
:1006000030BD00BF90F0000F04BF0021704730B52F
:100610004FF4806404F132044FF000054FF0000104
:1006200050E700BF90F0000F04BF0021704730B5C5
:100630004FF4806404F1320410F0004548BF40429A
:100640004FF000013EE700BF42004FEAE2014FEAEF
:1006500031014FEA02701FBF12F07F4393F07F4FCA
:1006600081F06051704732F07F4208BF704793F0CD
:100670007F4F04BF41F40021704730B54FF46074E0
:1006800001F0004521F000411CE700BF50EA0102E3
:1006900008BF704730B54FF000050AE050EA01028C
:1006A00008BF704730B511F0004502D5404261EBFC
:1006B00041014FF4806404F132045FEA915C3FF43D
:1006C000D8AE4FF003025FEADC0C18BF03325FEADA
:1006D000DC0C18BF033202EBDC02C2F1200300FA8B
:1006E00003FC20FA02F001FA03FE40EA0E0021FAB0
:1006F00002F11444BDE600BF53B94AB9002908BF4E
:1007000000281CBF4FF0FF314FF0FF3000F074B9EC
:10071000ADF1080C6DE904CE00F006F8DDF804E058
:10072000DDE9022304B070472DE9F047089D044637
:100730008E46002B4DD18A42944669D9B2FA82F294
:1007400052B101FA02F3C2F1200120FA01F10CFAD0
:1007500002FC41EA030E94404FEA1C48210CBEFB08
:10076000F8F61FFA8CF708FB16E341EA034306FB91
:1007700007F199420AD91CEB030306F1FF3080F020
:100780001F81994240F21C81023E63445B1AA4B26D
:10079000B3FBF8F008FB103344EA034400FB07F70F
:1007A000A7420AD91CEB040400F1FF3380F00A8150
:1007B000A74240F207816444023840EA0640E41B45
:1007C00000261DB1D4400023C5E900433146BDE8F1
:1007D000F0878B4209D9002D00F0EF800026C5E993
:1007E000000130463146BDE8F087B3FA83F6002EAB
:1007F0004AD18B4202D3824200F2F980841A61EB23
:10080000030301209E46002DE0D0C5E9004EDDE740
:1008100002B9FFDEB2FA82F2002A40F09280A1EB28
:100820000C014FEA1C471FFA8CFE0126200CB1FB7D
:10083000F7F307FB131140EA01410EFB03F0884276
:1008400008D91CEB010103F1FF3802D2884200F203
:10085000CB804346091AA4B2B1FBF7F007FB101195
:1008600044EA01440EFB00FEA64508D91CEB040433
:1008700000F1FF3102D2A64500F2BB800846A4EB8E
:100880000E0440EA03409CE7C6F12007B34022FA79
:1008900007FC4CEA030C20FA07F401FA06F31C43A8
:1008A000F9404FEA1C4900FA06F3B1FBF9F8200CB5
:1008B0001FFA8CFE09FB181140EA014108FB0EF0FB
:1008C000884202FA06F20BD91CEB010108F1FF3A4B
:1008D00080F08880884240F28580A8F10208614457
:1008E000091AA4B2B1FBF9F009FB101144EA014165
:1008F00000FB0EFE8E4508D91CEB010100F1FF3410
:100900006CD28E456AD90238614440EA0840A0FBA7
:100910000294A1EB0E01A142C846A64656D353D07D
:100920005DB1B3EB080261EB0E0101FA07F722FAA1
:1009300006F3F1401F43C5E9007100263146BDE8CA
:10094000F087C2F12003D8400CFA02FC21FA03F32D
:10095000914001434FEA1C471FFA8CFEB3FBF7F0AE
:1009600007FB10360B0C43EA064300FB0EF69E42D3
:1009700004FA02F408D91CEB030300F1FF382FD26C
:100980009E422DD9023863449B1B89B2B3FBF7F614
:1009900007FB163341EA034106FB0EF38B4208D9ED
:1009A0001CEB010106F1FF3816D28B4214D9023E2E
:1009B0006144C91A46EA004638E72E46284605E74C
:1009C0000646E3E61846F8E64B45A9D2B9EB02081D
:1009D00064EB0C0E0138A3E74646EAE7204694E7AD
:1009E0004046D1E7D0467BE7023B614432E73046E0
:1009F00009E76444023842E7704700BF684620F0C8
:100A000007018D46FEE7000008B50F4A0F4B9A42DA
:100A100008D00F4A0C4B0D4852F8041B43F8041B36
:100A20008342F9D10B4A0C4B9A4206D0134600215F
:100A3000094A43F8041B9342FBD107F0D5F918F09B
:100A4000E5FC00F065FEFEE7000000240C04002435
:100A50005CCA01081004002444A5062470477047AE
:100A600000F2CC6300F52B72843B9A42FCD17047B4
:100A70007047704770477047012A08BF0160002027
:100A80007047012A08BF0160002070470000000085
:100A90002DE9F04F2DED068B83B08346784D8A46C5
:100AA00000F5005901F500582F462E4600240EE1AE
:100AB00017F040FDB0EE409A1DE1724B93ED002A15
:100AC000B7EEC22AB7EEC73A9FED636B22EE066B14
:100AD00026EE034B17ED015AB7EEC55A35EE045B0F
:100AE000B7EEC55B07ED015AB5EE006B22EE062BA3
:100AF00097ED005AB7EEC55A02EE035BB7EEC55B41
:100B000087ED005A97ED016AB7EEC66A36EE046BC0
:100B1000B7EEC66B87ED016A019B03EB430301331C
:100B200006EE903AF8EE666AF4EEE76AF1EE10FA35
:100B30004AD5554B93ED006AB7EEC66AB7EEC73A91
:100B40009FED474B26EE044B16ED025AB7EEC55A01
:100B500004EE035BB7EEC55B06ED025A9FED425B08
:100B600026EE055B25EE032B16ED014AB7EEC44ACF
:100B700034EE024BB7EEC44B06ED014A9FED3C5BF1
:100B800026EE055B96ED004AB7EEC44A05EE034B30
:100B9000B7EEC44B86ED004A96ED015AB7EEC55A42
:100BA00035EE025BB7EEC55B86ED015A9FED325B19
:100BB00026EE056B96ED025AB7EEC55A06EE035BBC
:100BC000B7EEC55B86ED025A0199022964D92F4B15
:100BD0001B68012B00F045812D4B186800EB40038A
:100BE0000B442C4991ED003AB7EEC33AB7EEC72A51
:100BF0009FED196B23EE066B26EE024B204901EBAD
:100C0000830C9CED005AB7EEC55A35EE045BB7EE87
:100C1000C55B8CED005A1B1A01EB830CB5EE006B23
:100C200023EE063B9CED005AB7EEC55A03EE025B7D
:100C3000B7EEC55B8CED005A1B1A01EB830393EDF5
:100C4000006AB7EEC66A36EE046BB7EEC66B83ED8C
:100C5000006A26E0AFF30080B0726891ED7CBF3F80
:100C6000295C8FC2F528AC3F295C8FC2F528BC3FB8
:100C7000C3F5285C8FC2C53FE17A14AE47E1BA3FA5
:100C80001451062464710624A8710624040000246B
:100C900008000024D8040024794B1B68012B00F0C5
:100CA000E080784BD3ED007A774BD3ED006A67EEA6
:100CB000A67A27EE877A02ED017AEAEC019AA8EC8F
:100CC000019A0C360837B4F5006F00F0CF8001941C
:100CD000013407EE904AB8EE678AFBEC018AB9EC62
:100CE00001AAB5EC010AB5EE400AF1EE10FA3FF5A3
:100CF000DFAEB1EEC09A654BD3ED007A644B93ED55
:100D0000007AC8EE276AF4EEC76AF1EE10FA05DD44
:100D100067EE877A87EE887A29EE079A18F078FCD2
:100D2000430000EE103AB8EEC00B9FED537B20EE6F
:100D3000070BB7EEC08BB0EE480A16F0A1FD69EEC6
:100D4000009AB0EE480A17F0EFFA29EE009A514BDC
:100D50001B78002BB1D12A4668EEA88A2AEE0A7ABF
:100D600038EE877AF5EE008A27EE287A55ED018A6B
:100D700037EE287AB7EEC77A474BD3ED006AF7EE25
:100D8000005A85EEA66AB7EEC65AB7EE006B36EE8D
:100D9000456B27EE067BB7EEC77B05ED017A01991F
:100DA00000293FF479AF394BD3ED006AF6EE007AB3
:100DB00066EEA77A06EE901AB8EE666AF0EE006A62
:100DC00077EEE66AB4EEE66AF1EE10FA7FF564AF0C
:100DD000324B1B68591E01297FF66FAE019801281E
:100DE0007FF69AAE00F001010B437FF495AE410807
:100DF000481E2B4B93ED002AB7EEC22AB7EEC73A36
:100E0000B6EE086B22EE066B26EE034B254B03EB8A
:100E1000800090ED005AB7EEC55A35EE045BB7EE90
:100E2000C55B80ED005A03EB8100B7EE086B22EE44
:100E3000062B90ED005AB7EEC55A02EE035BB7EEF3
:100E4000C55B80ED005A013103EB810393ED006A2D
:100E5000B7EEC66A36EE046BB7EEC66B83ED006A7A
:100E60005AE6084B4FF07E5119601AE703B0BDEC0B
:100E7000068BBDE8F08F00BF182D4454FB210940BC
:100E800004000024E40400246C71062420000024E3
:100E9000C87106242C060024CC710624687106242F
:100EA000647106241451062408B591ED007AB7EE5A
:100EB000C77A9FED090B27EE000B17F0DDF8B7EEB0
:100EC000007B37EE400BB6EE007B20EE070BB7EE53
:100ED000C00B08BDAFF30080182D4454FB2119400E
:100EE00008B591ED007AB7EEC77A9FED050B27EEB6
:100EF000000B17F001F9B7EEC00B08BDAFF300808F
:100F0000182D4454FB21094010B5044600F5005348
:100F10009B692BB142F210002044032201469847FE
:100F2000204610BD10B50446836813B10322014664
:100F30009847204610BD000010B50446002303600A
:100F40000B210171FF2242718171C27101724272E3
:100F50008172C272017342738173C273436103620F
:100F600080F8281080F82920C3620363436380F867
:100F70003C1080F83D2003644364836480F858107B
:100F800080F85920C36503664366036780F88410C0
:100F900080F88520C0F88830C0F88C30C0F89030D8
:100FA00080F8A01080F8A120C0F8A430C0F8A830C4
:100FB000C0F8AC3080F8B41080F8B520C0F8B83074
:100FC000C0F8BC30C0F8C03000F5D87300F52B7104
:100FD0000B221A72FF225A720022DA601A615A61D9
:100FE00024338B42F4D104F52B7304F2CC6C0B2028
:100FF0001876FF2159760022DA611A625A6283F864
:10100000440083F845109A64DA641A6583F8700026
:1010100083F871105A679A67DA6784336345E6D1BB
:1010200004F2CC6304F27C710B221A76FF225A760A
:101030000022DA611A625A622C339942F4D11346C3
:10104000C4F87C270B2184F88A17FF2284F88B27A9
:1010500084F88C1784F88D27C4F89037C4F8943737
:10106000C4F898374FF40072034904F2A27018F0E4
:10107000F9F9204610BD00BF40A5010810B504468F
:1010800080ED040AB7EE007AC7EE007AC0ED057A6B
:101090009FED0A0A80ED020A4FF07C534360C36063
:1010A0000023836116F06EFB84ED070A0023237092
:1010B000012384F8293084F8283010BD0000C8428C
:1010C000DFED0B7A70EE277AF4EEE07AF1EE10FAAB
:1010D0000BD4DFED077A30EE670AB4EEE00AF1EEEA
:1010E00010FACCBF0120002070470120704700BFDC
:1010F0000AD7A33B084B1B781BB1084B00221A6090
:101100007047054B5B781BB1044B02221A60704795
:10111000024B01221A6070470851062468710624A8
:1011200008B5104B1B7833B90E4B5B788BB90E4B5F
:1011300001221A6008BD0C4B00221A609FED0B0AB9
:101140000B4816F05BF90B480B4BC36016F03EFBE7
:10115000F0E7054B02221A609FED080A044816F0DA
:101160004DF9E7E70C510624147106249A99993E2B
:1011700018710624885002240000FA45CDCC4C3E5C
:1011800038B5354B1B7833B9334B5B789BBB334B4E
:1011900001221A6038BD0024304B1C60304D9FED99
:1011A000310A85ED020A284616F0ECFA85ED070AA9
:1011B0002C702D4D9FED2D0A85ED020A284616F064
:1011C000E1FA85ED070A2C70294D9FED2A0A85ED7D
:1011D000020A284616F0D6FA85ED070A2C70264D2D
:1011E0009FED260A85ED020A284616F0CBFA85ED1A
:1011F000070A2C70CEE7194B02221A60184C9FED9B
:10120000200A84ED020A204616F0BCFA84ED070A93
:1012100001252570144C9FED1B0A84ED020A20461F
:1012200016F0B0FA84ED070A2570114C9FED160AEE
:1012300084ED020A204616F0A5FA84ED070A25700F
:101240000D4C9FED120A84ED020A204616F09AFA20
:1012500084ED070A25709DE7105106240C00002438
:10126000F8040024BC74133C240500240AD7233C52
:10127000500500245839343C7C050024A69B443C8E
:101280000AD7A33CCDCCCC3C8FC2F53C295C0F3DAA
:1012900010B52DED028B924B93F8B431CBB1904B3E
:1012A00093F8CC31802B14D18E4B1B7873B98E4AB6
:1012B000137883F001031370002B9FED8C0AF7EE77
:1012C000007A07FE800A8A4803F074FE854B0022EC
:1012D0001A70834B93F8F031FF2B14BF00210121CA
:1012E000844A11707F4A12786AB9834A92F83A2088
:1012F0004AB9FF2BB7EE000ADFED7C7A00FE270A21
:101300007E4803F057FE764B93F8CC31FF2B02D08A
:10131000BDEC028B10BD06F069FB07EE900AF8EEFB
:10132000677A6F4B93ED747A77EEC77A9FED747A94
:10133000F4EEC77AF1EE10FA03DB6A4B1B78002B50
:101340004CD0674B93F8CC31FF2BE1D106F04EFB2C
:1013500007EE900AF8EE677A614B93ED747A77EEB8
:10136000C77A9FED687AF4EEC77AF1EE10FACFDB18
:10137000654B002243F8042B644A9342F9D10022C2
:1013800043F8042B624A9342F9D1002203F8012B5F
:10139000604A9342F9D1A2F13A03002283F83A203D
:1013A00083F83B200022DA631A644F4B1B78002B32
:1013B00000EE102AF7EE007A07FE800A4C4803F090
:1013C000F9FD4C4B1B78002BB7EE000ADFED477A96
:1013D00007FE800A494803F0EDFD99E7464B93F874
:1013E0003A1081F0010283F83A2083F83B10002A7A
:1013F00068D03433002203F8012B464A9342F9D1D6
:10140000A2F13A0393F83B3003BB3B4B93F83A30DD
:10141000002B3DD1344B1B78002B9FED340AF7EEA7
:10142000007A07FE800A324803F0C4FD314B1B7876
:10143000002BB7EE000ADFED2D7A07FE800A2F4859
:1014400003F0B8FD274B01221A707AE7A2F13A03A4
:10145000196800293ADCD8E70120107001328B426C
:10146000D3D0B3EC017AD3ED056ADFED2B7A77EEBA
:10147000277AF4EEE76AF1EE10FAEDDCDFED267A7A
:1014800037EE677AF4EEC76AF1EE10FAE6D5E3E7D5
:10149000194C94ED0F0AB7EEC00A9FED0F8B30EE9A
:1014A000080BB7EEC00B124803F084FD94ED100A50
:1014B000B7EEC00A30EE080BB7EEC00B0F4803F0D2
:1014C00079FDBFE70C4B19680029A3DD0A4A131DFB
:1014D000343203EB8101C4E7333333333333D33F47
:1014E00070460024240600242C0400240000000080
:1014F000305002242C060024A80500245C5002244D
:10150000000016440000FA44AC050024C405002481
:10151000DC050024E20500240AD7233C08B5724B01
:101520001B6803EBC303714A02EB830393F8CC31CE
:10153000FF2B14BF002301236D4A12789A4200F05A
:10154000BA806B490B70684B5B6803EBC303674A57
:1015500002EB830393F8CC31FF2B14BF002301234C
:101560004A789A4201D0624A5370FFF7C3FD614B3B
:101570001B6803EBC3035D4A02EB830393F8CC3192
:10158000FF2B14BF002301235B4A12789A427CD0C0
:1015900059490B70574B5B6803EBC303534A02EB8B
:1015A000830393F8CC31FF2B14BF002301234A7827
:1015B0009A4201D0504A5370FFF7B2FD4F4B1B685F
:1015C00003EBC303494A02EB830393F8CC31FF2BAF
:1015D00014BF002301234A4A12789A423FD0484957
:1015E0000B70464B5B6803EBC303404A02EB83037B
:1015F00093F8CC31FF2B14BF002301234A789A4281
:1016000001D03F4A5370FFF7BBFD3E4B1B6803EB15
:10161000C303364A02EB830393F8CC31FF2B14BF8C
:1016200000230123384A12789A4201D0364A1370B7
:10163000344B5B6803EBC3032C4A02EB830393F840
:10164000CC31FF2B14BF002301232F4A52789A423A
:1016500001D02D4A53702D4B00221A7008BD274B24
:101660005B6803EBC303214A02EB830393F8CC319D
:10167000FF2B14BF00230123214A52789A42C0D184
:10168000224B1B78002BBED1BFE71A4B5B6803EBE4
:10169000C303164A02EB830393F8CC31FF2B14BF2C
:1016A00000230123144A52789A4283D1174B1B78A6
:1016B000002B81D182E70C4B5B6803EBC3030B4A21
:1016C00002EB830393F8CC31FF2B14BF00230123DB
:1016D000074A52789A427FF446AF0C4B1B78002B96
:1016E0007FF443AF43E700BFB07106247046002487
:1016F00008510624B87106240C510624C071062432
:1017000010510624E8040024EC5006242400002490
:10171000F0B52DED028B8BB0CE4C0021204601F0B0
:10172000F5FF0221204601F06DFC204601F090FCFF
:10173000C94B83ED000A4FF48071204601F03CFC58
:10174000C64B03F50051002243F8042B8B42FAD11B
:10175000C34B02221A6003225A60C24B04221A6051
:1017600005225A60C04B0621196007225A60BF4B00
:1017700008221A6009225A600A229A600B22DA6053
:10178000BB4A002313705370BA4A13705370BA4A9D
:1017900013705370B94A137053709370D370B84B71
:1017A00043F8041B002243F8042BB64A9342F9D1B4
:1017B000002243F8042BB44A9342F9D1002203F8E3
:1017C000012BB24A9342F9D1A2F13A03002583F8E2
:1017D0003A5083F83B509FEDAE8A83ED0F8A83ED3C
:1017E000108AAC4B1D70AC4B1D705D709D70DD7030
:1017F0001D715D71974CEC4604F1D00EBEE80F00F0
:10180000ACE80F009EE80F008CE80F002A46F7EEC8
:10181000000AB0EE480A6946A04803F001FCEC4615
:1018200004F5887EBEE80F00ACE80F009EE80F00CC
:101830008CE80F002A46F7EE000AB0EE480A694627
:10184000974803F0EDFBEC4604F5A87EBEE80F00D8
:10185000ACE80F009EE80F008CE80F000122F7EEC5
:10186000000AB0EE480A69468E4803F0D9FBEC4600
:1018700004F1F00EBEE80F00ACE80F009EE80F0088
:101880008CE80F00DFED888A2A46F0EE680AB0EE99
:10189000480A6946854803F0C3FBEC4604F5987E88
:1018A000BEE80F00ACE80F009EE80F008CE80F00C8
:1018B0002A46DFED7F0AB0EE480A69467D4803F00C
:1018C000AFFBEC4604F5B87EBEE80F00ACE80F00B5
:1018D0009EE80F008CE80F002A46DFED770A9FEDA7
:1018E000770A6946764803F09BFBEC4604F5C8741A
:1018F0000FCCACE80F0094E80F008CE80F002A46EC
:10190000F7EE000AB0EE480A69466E4803F088FB1D
:101910006D4B6E4A1A606E4B4FF07C521A606D4BE5
:10192000C3ED008A6C4B83ED008A6C4B83ED008A1B
:101930006B4B83ED008A5C2015F081FF0446694BF8
:10194000186080F8585003250123AB4007EE903A09
:10195000F8EEE77A9FED647A87EE278AB0EE480AC0
:1019600015F08EFF84ED000AB0EE480A16F0DCFC9C
:1019700084ED010A013508340C2DE5D1342015F031
:101980005EFF0546574B1B68584A0260584A426042
:10199000584A8260584AC2600361584B436104232D
:1019A00083614FF48063C36100240463202015F039
:1019B00057FF2862202015F053FF68622026324628
:1019C0002146286A17F076FD32462146686A17F0EC
:1019D00071FDE8692A6A131F1C3243F8044F241A68
:1019E0009A42FAD1082015F03BFFA862082015F0B2
:1019F00037FFE862AB6A00261E605E60EB6A4FF05C
:101A000001321A605A603E4B1D603E4C204615F074
:101A1000A1FC9FED270A204615F0F0FC0E4C3A4D34
:101A200094ED000A284615F0B3FE384BEB602846CB
:101A300015F0CCFE364F94ED000A3846FFF71EFB3A
:101A40004FF07E557D60334F94ED000A3846FFF726
:101A500015FB61E070460024280000241451062480
:101A6000B0710624B8710624C0710624E80400246D
:101A7000085106240C51062410510624EC5006246B
:101A8000A8050024C4050024DC050024E205002488
:101A90000000000024060024A4500424680400244C
:101AA000AC50042430040024CDCCCC3D2C71062451
:101AB0009A99993E707106249A99193E9A9919BE7D
:101AC000A0040024EC050024CC7106240000204171
:101AD000D4710624C8710624D8710624DC7106244A
:101AE000D071062428060024DB0F4940910A000823
:101AF00014500024A4500224EC5004245026002446
:101B0000AC71062418710624885002240000FA459E
:101B1000F8040024240500247D601F4F94ED000A82
:101B20003846FFF7ABFA7D601C4F94ED000A38464B
:101B3000FFF7A4FA7D60162001F062FEADF82000E8
:101B40009FED178A174CB0EE480A32460899204696
:101B500003F00EFA204603F03FFA134B01221A70ED
:101B6000172001F04DFEADF82400104CB0EE480AED
:101B700032460999204603F0FBF9204603F02CFA7F
:101B80000B4C204601F066FA0A49204601F012FA91
:101B9000642005F02FFFFBE7500500247C0500249E
:101BA00000007A44305002242C0400245C500224AB
:101BB00070460024A925000870B58269530000F022
:101BC0009E8000239FED556A5AE0D5ED007A3EE0F5
:101BD000F7EE006A77EEA67ABDEEE77AB8EEC77A3E
:101BE00077EEC77A9FED4E7A67EE877ABDEEE77A99
:101BF00017EE102A5142C2F30A02C1F30A0158BF7C
:101C00004A4207EE102AB8EEC77A77EEC77ABDEEE1
:101C1000E77AB8EEC77A77EEC77A511CD1F1000E99
:101C2000C1F30A01CEF30A0E58BFCEF1000105EB55
:101C3000810191ED007A27EE877A05EB820276EE3C
:101C4000E77AD2ED006A67EEA67A77EE277A04EBA0
:101C50000331426802EB810292ED007A67EE877AE7
:101C600036EE276A013446F80C40426A52F80C20DE
:101C7000B2F5805F39D001338269B3EB420F40D2B5
:101C8000826AD25C002AF6D045694FEA830C466A24
:101C900056F8234005F50052D2ED007A06EE904A40
:101CA000FAEECA6A76EEE76A92ED017A37EE677A63
:101CB000C6EE877A127A002A8AD1F5EEC07AF1EE62
:101CC00010FA82D4B7EE007AF4EEC77AF1EE10FA89
:101CD000FFF67EAFF5EEC07AF1EE10FA3FF575AF84
:101CE00005F50055D5ED037AB1E7C26A0121D1545B
:101CF000816A0022CA54016A41F80C20BBE79FEDBB
:101D0000076AB7EEC66A120307EE102ABBEEEF7B36
:101D100086EE070BB7EEC00B70BD00BF00000000E1
:101D20000000004500B583B08DED010A83682BB13A
:101D3000C36801A9984703B05DF804FB15F092FD54
:101D40002DE9F0412DED028B86B007460E46F0EEF0
:101D5000408AB0EE608A904600F5005200239361FD
:101D600004938B6833B1022202A89847F368059365
:101D7000B36804936D460DF1080C9CE8030085E8F8
:101D8000030007F5005303F1100494E803008CE806
:101D9000030095E8030084E80300049A9C69049416
:101DA0009A61059AD9690591DA611CB103226146ED
:101DB0006046A04707F50053C3ED008A83ED018A12
:101DC00083F808803D46002400EE104ABAEEEA0A85
:101DD000F7EE007A77EEC07A67EEA87A28EE000A6E
:101DE00037EE800A3046FFF79DFFA5EC010A01346B
:101DF000B4F5006FE8D1B0EE480A3046FFF792FF25
:101E000007F5005383ED030A384606B0BDEC028B9C
:101E1000BDE8F0812DE9F04F91B08B460F921D4641
:101E2000DDF868A002F110010020C3B2EA5C030AE9
:101E3000EB5C43EA02231B119A000BEB830302F5D0
:101E400000565E44D3ED007A96ED007A77EEC77ABD
:101E500041ED037A02F580545C4402F540525A4445
:101E6000D4ED007A92ED007A77EEC77A41ED017AEF
:101E7000D3ED007A96ED007A77EE877A94ED007ACA
:101E8000D2ED006A37EE267A77EE876A41ED046A72
:101E900077EEC77A41ED027A04301031B0F5805FF9
:101EA000C3D10F990B465A4601F58040D3ED007A15
:101EB00093ED047A77EE877AC2ED007AD3ED007A5B
:101EC00093ED047A77EEC77AC2ED047A996891604F
:101ED0009969916193ED057AD3ED077A37EE677AC8
:101EE0009FED8A6A27EE067AD3ED016A76EE876A5D
:101EF000C2ED016AD3ED016A36EEC77A82ED037A4C
:101F0000D3ED057A93ED077A77EE877A67EE867AD6
:101F100093ED037A37EE277A82ED057A93ED037A13
:101F200077EEC77AC2ED077A203320328342BDD1E3
:101F3000CDF818A00AF1040307930F9B0D93032318
:101F40000C93CDF838B00FE00C9A01320C92069B3E
:101F500008330693079B083307930E9B0D990E9148
:101F60000C2A00F0C9800D934FF0010E0C990EFA67
:101F700001FE4FEA5E0215460A92042303FA01F1BC
:101F8000089193004FEA4E0009904FEACE0E0D9E45
:101F90007018029006EB820203920A1D0E98044606
:101FA00000EB020902EB85028218019200F104089D
:101FB000301D049003F1040BA34404EB010C9C447A
:101FC0004B000B930023059358ED017A19ED017A2C
:101FD00077EE877A049941ED017A58ED017A19ED8F
:101FE000017A77EEC77A029EC6ED007A5BF8043C70
:101FF000039C2360019B53F8042C089D63191A600D
:10200000079C54F8043CCAF85030CAF84830069C83
:102010006368CAF85430CAF84C300A9C012C52D973
:10202000371D0B98041F0D460C4458464146019A33
:102030004B469AED126A9AED137AD3ED006AD2ED0F
:10204000007A66EE866A67EE877A76EEE76AD1ED09
:10205000007A77EEA67AE5EC017AF1EC017A77EE78
:10206000E66A66ED016AF3EC017A27EE277AF2EC74
:10207000017A66EE277A77EE277A90ED007A37EECE
:10208000277AA7EC017AB0EC017A77EEC77A64ED93
:10209000017ADAED127ADAED145A9AED137A9AEDA2
:1020A000156A67EE866A25EE875A76EE856ACAED6E
:1020B000136A67EEA57A27EE067A77EEC77ACAED3D
:1020C000127A6345B5D1059B099A13440593029A88
:1020D00072440292039A72440392F144019A724448
:1020E0000192F044049A72440492F344F444B3F528
:1020F000805FFFF469AF27E70F98884203D04FF461
:10210000804217F0BDF911B0BDE8F08FF304353F00
:102110002DE9F04F91B00E910D920F93DDF868B05C
:10212000CDF818B00B920B230C930BE00E9B0B9386
:102130000D990C9B013B0C93069A083A0692022BD0
:1021400000F0CB804FF0010E0C980EFA00FE4FEA23
:102150005E020992042303FA00F407944FEA4E0347
:1021600008934FEACE0E884601EB820A0B9800EBEB
:1021700082030193031D0293231D01EB0309C11880
:10218000039103EB8203C3180493D44663000A93BC
:1021900000230593079B1A464244D8ED007A19EDB7
:1021A000017A77EE877A029C44ED017AD8ED007AC5
:1021B00019ED017A77EEC77A039D45ED017ADAEDE4
:1021C000007A77EEA77A019FC7ED007A5344D3EDEA
:1021D000007A77EEA77A049E46ED017A06990B6C99
:1021E000CBF85030CBF848304B6CCBF85430CBF8B0
:1021F0004C30099B012B50D908F104030A9908EBD4
:1022000001000437494693ED007A72ED017A77EECA
:10221000877AE4EC017AD1ED007A30ED017A77EE3D
:10222000C77AE7EC017ADBED125A9BED136AF3EC07
:10223000016AD2ED007A76EEE76AB1EC017AD0ED70
:10224000007A77EE277A26EEA57A27EE865A37EEC1
:10225000057AA5EC017A67EEA57A66EE866A77EED6
:10226000E67AE6EC017ADBED127ADBED145A9BEDAF
:10227000137A9BED156A67EE866A25EE875A76EE2D
:10228000856ACBED136A67EEA57A27EE067A77EEBC
:10229000C77ACBED127A6345B5D1059B089A1344F2
:1022A0000593F044F244019A72440192029A7244F6
:1022B0000292F144039A72440392049A7244049283
:1022C000F444B3F5805FFFF465AF0D9B0B998B422F
:1022D0003FF42CAF0B930E992BE70B9B0D9A934277
:1022E00000F08B800D990B460E9A01F58041D3EDDD
:1022F000007A93ED047A77EE877AC2ED007AD3ED17
:10230000007A93ED047A77EEC77AC2ED047AD3EDC2
:10231000027A77EEA77AC2ED027AD3ED067A77EEEB
:10232000A77AC2ED067AD3ED017A93ED037A77EEC0
:10233000877AC2ED017AD3ED057A93ED077A77EECD
:10234000C77AC2ED037AD3ED017AD3ED036A77EE53
:10235000E66A93ED057AD3ED077A77EE277A36EEC3
:10236000A77A9FED296A27EE067A82ED057A77EE45
:10237000E67A67EE867AC2ED077A203320328B4206
:10238000B5D10E9A103200210D9D0F9852ED047AAE
:1023900012ED027A37EE876A77EEC77A52ED036A5A
:1023A00076EEA66A12ED017A37EE077ACBB2C45CFC
:1023B0000B0AC35C43EA04231B1105EB830376EE8F
:1023C000265AC3ED005A03F5005476EE666AC4ED52
:1023D000006A03F5805477EE876AC4ED006A03F55E
:1023E000405377EEC77AC3ED007A04311032B1F56D
:1023F000805FCBD111B0BDE8F08F4FF480420D98D3
:1024000017F03EF86EE700BFF304353F83695B00C9
:1024100000F0C480F0B52DED028B85B00546B0EE1E
:10242000408A002458E0D6ED007A3EE0F7EE006ADC
:1024300077EEA67ABDEEE77AB8EEC77A77EEC77A7E
:102440009FED577A67EE877ABDEEE77A17EE101A9E
:102450004842C1F30A01C0F30A0058BF414207EEE7
:10246000101AB8EEC77A77EEC77ABDEEE77AB8EE03
:10247000C77A77EEC77A481CD0F1000CC0F30A0087
:10248000CCF30A0C58BFCCF1000006EB800090EDB5
:10249000007A27EE877A06EB810176EEE77AD1EDB6
:1024A000006A67EEA67A77EE277A03EB0433696851
:1024B00001EB830368EE277AC3ED007A296A8B5813
:1024C00001338B502B6A9B58B3F5805F3AD00134AF
:1024D000AB69B4EB430F5DD2EB6A1B5D002BF6D00A
:1024E000A2002B6A53F82430002BE7DB6E6906F557
:1024F0000051D1ED007A06EE903AFAEECA6A76EE15
:10250000E76A91ED017A37EE677AC6EE877A097A43
:1025100000298BD1F5EEC07AF1EE10FA83D4B7EE34
:10252000007AF4EEC77AF1EE10FAFFF67FAFF5EE1F
:10253000C07AF1EE10FA3FF576AF06F50056D6ED0B
:10254000037AB2E7E96A00230B55A96A012008550E
:10255000696A8B50A603134FAA6869682B690093B8
:102560003B4602EB843201EB843103A8FFF752FCB7
:10257000E968A8682B683144304498476A68E9687C
:102580002B6900933B463244314403A8FFF7C0FD5A
:102590002C639CE705B0BDEC028BF0BD704700BF1B
:1025A000000000459CA701082DE9F0412DED028BAC
:1025B00086B006460D461746B14802F00DFDB148FB
:1025C00002F00AFDB04C204600F048FD204600F025
:1025D00055FDFEF75DFEFEF7A1FFAC4B1B78002B0F
:1025E00040F08A80AA4802F04BFDAA4B83ED000A16
:1025F000A94B83ED000AA54B5B78002B40F08F8040
:10260000A64802F03DFDA34B83ED010AA24B83EDEA
:10261000010A9E4B9B78002B40F09480A04802F06A
:102620002FFD9C4B83ED020A9B4B83ED020A974BD7
:10263000DB78002B40F099809A4802F021FD954B01
:1026400083ED030A944B83ED030A904B1B79002B17
:1026500040F09E80944802F013FD8E4B83ED040AF7
:102660008D4B83ED040A894B5B79002B40F0A380EE
:102670008E4802F005FD874B83ED050A864B83EDFE
:10268000050A8B4802F0FCFC8A4B93F83AC0BCF177
:10269000000F1DD0B7EEC07A9FED756BB4EEC67B10
:1026A000F1EE10FA40F19A801868002809DD794BA4
:1026B000814A03EB800053F8041B42F8041B834259
:1026C000F9D17C4B4FF07E52DA634FF07C521A64A2
:1026D000784B93F83B30002B00F0F280754B1C6870
:1026E000002C40F3FB801A4603F133006B46694926
:1026F000043203EB840EA4E0674B93ED008A644838
:1027000002F0BEFCF0EE400AB0EE480AFEF7D8FC3C
:1027100000283FF470AF5D4B00221A706BE75E4BF0
:1027200093ED018A5D4802F0ABFCF0EE400AB0EE9A
:10273000480AFEF7C5FC00283FF46BAF534B00225C
:102740005A7066E7544B93ED028A554802F098FCA4
:10275000F0EE400AB0EE480AFEF7B2FC00283FF463
:1027600066AF4A4B00229A7061E74B4B93ED038AA8
:102770004C4802F085FCF0EE400AB0EE480AFEF745
:102780009FFC00283FF461AF404B0022DA705CE709
:10279000414B93ED048A444802F072FCF0EE400A8B
:1027A000B0EE480AFEF78CFC00283FF45CAF374BD4
:1027B00000221A7157E7384B93ED058A3B4802F027
:1027C0005FFCF0EE400AB0EE480AFEF779FC002804
:1027D0003FF457AF2D4B00225A7152E79FED266B05
:1027E000B4EEC67BF1EE10FA15DD324B1868002806
:1027F00009DD284B314A03EB800053F8041B42F8F3
:10280000041B8342F9D12B4B4FF07C52DA634FF01B
:102810007E521A645CE7274B4FF07C52DA631A64ED
:1028200056E777EE667A67EE807A77EE677AC3EDE1
:10283000007A01E00C681C600433043104327345F3
:102840004CD010F8014F002CF4D0D2ED066A92ED76
:10285000007A76EEC77AF5EEC07AF1EE10FAE0DD96
:1028600060EE277A77EE877AC3ED007AE4E700BF5F
:102870009A9999999999A93F666666666666EE3F48
:10288000305002245C50022470460024A4500424DA
:102890006804002418500224F0500624AC5004248C
:1028A000300400242C71062470710624A004002436
:1028B000EC050024A8050024AC050024C405002470
:1028C000B94B1868002809DDB84B6A4603EB800055
:1028D00053F8041B42F8041B8342F9D1BCF1000FEA
:1028E0007CD1DDED007A9FEDB27A67EE877AB7EEA4
:1028F000007A77EE877AAF4BC3ED007AAE4B019A40
:102900001A60DDED027AAD4BC3ED007ADDED034ACE
:10291000AB4BC3ED004A9DED045AAA4B83ED005A20
:102920009DED054AF0EEC45AA74BC3ED005AA74BE4
:102930001B6833F0020331D1A54B93ED007AB0EE62
:10294000C77A27EE277AB7EEC77A9FED8D3B9FEDCA
:102950008E6B07EE036BB7EEC66B984B83ED006A88
:102960009C4BD3ED006AF0EEE66A66EEA46A944BE7
:10297000C3ED006A984B93ED007AB0EEC77A27EE6C
:10298000057A904B83ED007A944BD3ED007AF0EE0C
:10299000E77A67EEA57A8C4BC3ED007A8A4B93ED0C
:1029A000007AB7EEC77A9FED7A6BB4EEC67BF1EE94
:1029B00010FA35DD9FED786B37EE467BB7EEC77BBF
:1029C00083ED007AB5EEC04AF1EE10FA20DB844BBD
:1029D00002221A60834B01221A6024E0724C94EDAB
:1029E0000F0AB7EEC00A9FED688B30EE080BB7EE0A
:1029F000C00B7D4802F0DEFA94ED100AB7EEC00A73
:102A000030EE080BB7EEC00B784802F0D3FA68E757
:102A1000734B00221A60734B4FF0FF321A6002E0D2
:102A20006F4B01221A60664B93ED001AB7EEC11A84
:102A3000B2EE000B15F054F8B7EE007B30EE470B0A
:102A4000B7EEC00B6A4B83ED000A6A4B93ED007A38
:102A5000C0EE077A684B93ED007A67EE877AB6EEA0
:102A6000087AF4EEC77AF1EE10FA58BFF0EE477A22
:102A7000624BC3ED007A534B93ED001AB7EEC11AC7
:102A8000B2EE000B15F02CF8B7EE007B30EE470BE2
:102A9000B7EEC00B574BD3ED007A80EE276A564B4A
:102AA000D3ED007A26EE276AF6EE087AB4EEE76AEE
:102AB000F1EE10FA58BFB0EE676A424B93ED004A50
:102AC000B7EEC44A9FED363B84EE037BB7EE008B36
:102AD00038EE477B494B93ED005AB7EEC55A27EEC7
:102AE000057BB7EEC77B464B83ED007AB7EEC66A2F
:102AF00086EE035B25EE046BB7EEC66B414B83EDB0
:102B0000006AF7EE007A37EEC77A37EE466A3E4B38
:102B100083ED006A2C4B93ED001AB7EEC11AB2EEAA
:102B2000000B14F0DDFF30EE488BB7EEC88B374B4F
:102B300083ED008A2F4B93ED007AC8EE077A2E4B77
:102B400093ED007A67EE877AB6EE087AF4EEC77AEC
:102B5000F1EE10FA58BFF0EE477A2D4BC3ED007A34
:102B60002C4BC3ED007AB7EE007A77EE677A2A4BEA
:102B7000C3ED007A002F00F0CE80002461E000BF9A
:102B8000666666666666E63F333333333333D33F78
:102B9000B81E85EB51B89E3F1904560E2DB29D3FCD
:102BA00048E17A14AE47F93FA805002418500224E2
:102BB0000000C642CC710624D4710624C8710624D4
:102BC000D8710624DC710624D07106240C00002480
:102BD0001000002414000024180000241C0000240D
:102BE0000400002408000024305002245C50022419
:102BF000E85004242800002414500224E450042443
:102C000064710624A87106246C710624E004002473
:102C1000DC040024D8040024E4040024336803EB1B
:102C200084031A682B6803EB84031A60736803EB50
:102C300084031A686B6803EB84031A600134A742AB
:102C400069D0374814F0E8FB364B83ED000A36486C
:102C500014F0E2FB354B83ED000A354814F0DCFB41
:102C6000344B83ED000A344814F0D6FB334B83ED2C
:102C7000000A334B1B78002BD0D14FEA840833680D
:102C800003EB840393ED000A2E4B1868FFF7BEFB9D
:102C90002D4B1B683BB3012B30D0022B33D09FED63
:102CA0002B0A2B4BD3ED007A2B6843443268424405
:102CB00092ED005AB7EEC55AB7EEE74AB7EE006B91
:102CC00036EE446B27EE800AB7EEC00A05EE060B1F
:102CD000B7EEC00B83ED000A2B6843441A686B689B
:102CE00043441A60AAE7174B1868FEF765FF1948B6
:102CF00014F03AFB184814F059FDD2E7114B18684C
:102D0000FEF75AFFCDE70F4B1868FEF755FF114845
:102D100014F02AFBC5E706B0BDEC028BBDE8F081DC
:102D2000F8040024100000242405002414000024CA
:102D300050050024180000247C0500241C000024F9
:102D40002C040024AC710624147106240000000039
:102D5000D471062418710624885002242DE9F0410C
:102D60002DED028B88B0564D2846FEF7E5F8554C00
:102D700022465549284614F05DFD544D2246294609
:102D8000534814F057FD22462946524814F052FD8C
:102D900022462946504814F04DFD224629464F4808
:102DA00014F048FD224629464D4814F043FD2246C2
:102DB00029464C4814F03EFD224629464A4814F064
:102DC00039FD4A484FF00B0880F81880FF274776F6
:102DD0000025C56105624562454E2246314614F024
:102DE00029FD444880F818804776C5610562456230
:102DF0002246314614F01EFD22463F493F4814F05A
:102E000019FD22463E493F4814F014FD22463E4932
:102E10003E4814F00FFD3E4B07933E4B06939FED4B
:102E20003E8A3E4D0122F7EE000AB0EE480A04A9A0
:102E30002846FEF785FF04A8FEF774F8384E2246B0
:102E40003146284614F0F6FC364B0393364B02937A
:102E5000364D0122F7EE000AB0EE480A69462846D0
:102E6000FEF76EFF6846FEF75DF8224631462846BB
:102E700014F0E0FC2E4BD3ED007AB5EE007A67EE4D
:102E8000877AFAFE677A2B4BC3ED007A2A4D2246E9
:102E900029462A4814F0CEFC22462946284814F038
:102EA000C9FC22462946274814F0C4FC224629467C
:102EB000254814F0BFFC08B0BDEC028BBDE8F081E2
:102EC0007046002400000024610A00085D0A000822
:102ED00068040024AC500424300400242C7106241F
:102EE00070710624A0040024EC0500243050022454
:102EF0005F0A00085C500224770A0008A805002435
:102F0000730A000818710624750A00088850022404
:102F1000A90E0008790A00080000000050260024CD
:102F2000090F0008E10E0008830A0008300600249B
:102F30002C00002414500224710A0008F804002414
:102F400024050024500500247C05002410B590F8C9
:102F5000243082B0044601335BB280F8243090F80C
:102F600024305BB2012B04DDFF2380F8243002B053
:102F700010BD90F82430826859B240FA83F3019072
:102F800001EB81110A44197B094B41F04001009388
:102F9000412303F0C1FB0028E9D0204603F092FB57
:102FA0000146204602B0BDE8104003F0F3BA00BF6E
:102FB0004D2F000800F03ABCF8B5054600F05AFC69
:102FC00005F1D00405F5C876284600F06FFC2046D0
:102FD000203401F035FFB442F6D105F2DC6405F28D
:102FE0008C77284600F062FC23462C3483ED000ADF
:102FF000BC42F6D1284600F059FC3046BDE8F84006
:1030000001F01EBFF8B5054600F014FC05F1D00430
:1030100005F5C876284600F049FC2046203401F02A
:103020000FFFB442F6D105F2DC6405F28C77284636
:1030300000F03CFC23462C3483ED000ABC42F6D160
:10304000284600F033FC3046BDE8F84001F0F8BEF9
:1030500000F00CBC183002F0C3BA00BF38B500F164
:10306000D00400F5C8752046203401F0C5FEAC42FE
:10307000F9D12046BDE8384001F0BEBE38B500F5B4
:10308000D87400F52B75743001F034FF20462434D9
:1030900002F064F8AC42F9D138BD00BF2DE9F04F21
:1030A00089B08446D0F8804704270DF10F060DF152
:1030B00007050DF117090DF11808B24640F6FE7E1E
:1030C00001965E4B04AEBCF8A2B793E8030002ABD6
:1030D000F34583E8030015F8012F4FEA221102F0AF
:1030E0000F0301EB811117FB03132344B3F80120F5
:1030F000C2F30B020BEB020188BF42F48052C1F312
:103100000B01A3F80120A3F803104D49019B03C94B
:1031100086E803004B4913F8012F03C9019302F01D
:103120000F0388E803001011BCF8A21700EB801011
:10313000714517FB03032344B3F80120C2F30B02CC
:1031400001EB020088BF42F48052C0F30B00A3F8E9
:103150000120A3F8030019F8013FBCF8A2171A11C7
:1031600003F00F03714502EB821202EB8303234449
:10317000B3F80120C2F30B0201EB020042F4805BC2
:10318000C0F30B00A3F8030052D9AA45A3F801B07D
:1031900097D1B4F83D2040F6FE70BCF8A217C2F3F8
:1031A0000B028B18C3F30B03A4F83F3040F6FE73F9
:1031B0009942B4F8663088BF42F48052C3F30B03DF
:1031C000A4F83D20BCF8A2175A18C2F30B02A4F8C9
:1031D000682040F6FE729142B4F86A2088BF43F43A
:1031E0008053C2F30B02A4F86630BCF8A2178B1808
:1031F000C3F30B03A4F86C3040F6FE739942B4F8A5
:103200006E3088BF42F48052C3F30B03A4F86A20E7
:10321000BCF8A2175A188142C2F30B0288BF43F4CC
:103220008053A4F87020A4F86E3009B0BDE8F08F88
:10323000AA45A3F801207FF444AFAAE740A70108FC
:103240009CA80108A8A801082DE9F04387B0002731
:103250000446A84905A8A84E059703F09BF9059BCD
:1032600006F18402A54904F27C75C4F87C37FF237B
:10327000C4F888174FF0060E3946C4F88427C4F8FE
:10328000806784F8A03701E0D4F880670A1101F064
:103290000F008B00013102EB82129BB2202906F84D
:1032A00002E002EB8000D4F88077D4F8846707EB63
:1032B000000CACF80130ACF8033006F802E0D4F8AA
:1032C00084270244A2F80130A2F80330DCD194F83C
:1032D0008A370B2B0DD0002604F28C700122009649
:1032E0003346E989039002F083FC3146039802F0EB
:1032F00071FD04F5F16704F28A794FF0000817F8C0
:10330000011B0126022304AA41F040012846009631
:103310000391ADF8108003F0D7F9142004F068FB96
:10332000022304AA039928460096ADF8108003F002
:10333000CBF9142004F05CFB4FF4005202230399F4
:10334000ADF81020284604AA009603F0BDF9142019
:1033500004F04EFB052343F20162039900932846D3
:10336000ADF81020022304AA03F0AEF9B945C6D186
:103370002046FFF793FE94F8A0371B06FBD5D4F840
:103380008027D4F88437C4F88427C4F88037B2F88B
:103390000310A3F80310B2F80710A3F80710B2F84F
:1033A0000B10A3F80B10B2F80F10A3F80F10B2F81F
:1033B0001310A3F81310B2F81710A3F81710B2F8EF
:1033C0001B10A3F81B10B2F81F10A3F81F10B2F8BF
:1033D0002310A3F82310B2F82710A3F82710B2F88F
:1033E0002B10A3F82B10B2F82F10A3F82F10B2F85F
:1033F0003310A3F83310B2F83710A3F83710B2F82F
:103400003B10A3F83B10B2F83F10A3F83F10B2F8FE
:103410004410A3F84410B2F84810A3F84810B2F8CA
:103420004C10A3F84C10B2F85010A3F85010B2F89A
:103430005410A3F85410B2F85810A3F85810B2F86A
:103440005C10A3F85C10B2F86010A3F86010B2F83A
:103450006410A3F86410B2F86810A3F86810B2F80A
:103460006C10A3F86C10B2F87010A3F87010B2F8DA
:103470007410A3F87410B2F87810A3F87810B2F8AA
:103480007C10A3F87C10B2F88010A3F88010FF2104
:1034900084F8A01794F8A03701335BB284F8A03702
:1034A00094F8A0375BB2012B04DD84F8A01707B0B5
:1034B000BDE8F08394F8A01701954BB244FA81F16E
:1034C0000F4C03EB831091F88817412300940244BA
:1034D00041F04001284603F01FF90028E7D02846B4
:1034E00003F0F0F80146284603F054F807B0BDE8B1
:1034F000F08300BFD4A801080000003000010B00D9
:103500004D2F0008F0B54FF60B72ADF5177D002476
:10351000002106460020ADF80820ADF81C2006F179
:103520001807ADF8302006F1D005ADF84420ADF80D
:103530005C20ADF87020ADF88420ADF89820ADF88F
:10354000B02005940A940F9414941A941F94249410
:1035500029942F94CDE90801CDE91201CDE9180194
:10356000CDE90344CDE90D44CDE91D44CDE927441F
:10357000CDE92D44CDE92201CDE93201CDE93C016F
:10358000CDE94201CDE94C01CDE95C01ADF8C420A3
:10359000ADF8D820ADF8EC20ADF80421ADF8182135
:1035A000ADF82C21ADF84021ADF85821ADF86C21D3
:1035B000ADF88021349439943E94449449944E94C7
:1035C000539459945E94CDE93744CDE94744CDE90D
:1035D0005144CDE95744CDE96144CDE96601CDE9D7
:1035E0006C01CDE97601CDE98601CDE990013F4935
:1035F00002A8ADF89421ADF8AC21ADF8C021ADF82A
:10360000D421ADF8E821ADF80022ADF81422ADF8D0
:103610002822ADF83C220222639468946E9473943D
:1036200078947D94839488948D94CDE97144CDE908
:103630007B44CDE98144CDE98B449294096801F043
:10364000B7FD2B4B022217A8196801F0B1FD294BD9
:1036500002222CA8196801F0ABFD274B022241A8D9
:10366000196801F0A5FD254B022256A8196801F042
:103670009FFD234B02226BA8196801F099FD214B95
:10368000022280A8196801F093FD042302A90722F1
:10369000384601F09DFDE1B2384601F0B7FF014622
:1036A00030460134019100F001F900232846DFED96
:1036B000160A203501991A4601F06CFB062CEAD156
:1036C0002146384601F0A2FF01463046019100F044
:1036D000EDF80023DFED0C0A019906F5C8701A46D3
:1036E00001F058FB0DF5177DF0BD00BFB4A801082F
:1036F000B8A80108BCA80108C0A80108C4A801080E
:10370000C8A80108D0A801086F12033BF0B5054610
:1037100000242DED028B87B005F5D8769FED2C8A1D
:10372000019100F06BF80199284600F081F9294BCE
:103730000DF1080C0FCBACE80700ACF8003006AB7D
:103740003046B0EE480A243603EB4403013433F824
:10375000101C01F0EBFC072CF1D11F4B05F174009C
:103760001E4A05F1D0041E4905F5C8769FED180ADA
:1037700009681B68126801F08FFB2846FFF764FD9B
:103780002846FFF7BFFE3021284600F073F8284690
:1037900000F08CF82046203401F052FBB442F6D100
:1037A00005F2DC6405F28C77284600F07FF82346AA
:1037B0002C3483ED000AA742F6D1284600F076F8B3
:1037C000304607B0BDEC028BBDE8F04001F038BBDD
:1037D0000000000048A70108CCA80108ECA80108D7
:1037E000E8A80108044B06221A7083F8412083F8E8
:1037F000842083F8C520704700000030704700BF68
:10380000202882B009D8084B03EB400213F810308F
:10381000507843EA002002B0704701230C2043EAAD
:10382000002002B0704700BFF0A80108143001F07A
:103830007DBA00BF38B500F1140504462DED028BAA
:10384000284601F01FFA284601F018FA2846B0EE83
:10385000408A01F001FAD0ED007AF8EE677A88EE3E
:10386000277ABDEC028B84ED1B7A38BD143001F051
:1038700005BA00BF38B500F1140504462DED028BE2
:10388000284601F0EDF9284601F0F8F92846B0EE97
:10389000408A01F0E1F9D0ED007AF8EE677A88EE1F
:1038A000277ABDEC028B84ED1B7A38BD90ED1B0AA4
:1038B000704700BF10B540F203338EB000244FF6BE
:1038C0000B7240F20341ADF8083009A80123ADF8AE
:1038D0001020ADF824202246ADF80C100094029977
:1038E00007940C94CDE90544CDE90A4402F080F92F
:1038F00004A8012322460399009402F079F909A84B
:1039000002F05CFA10B901200EB010BD04A802F05C
:1039100055FAA0420CBF022020460EB010BD00BFD9
:103920002DE9F04103239AB04FF0010800254FF62E
:103930000B740746CDE91438394BADF84C40CDE94E
:103940001053A3F19F63A3F57D43CDE9165812935D
:10395000FFF7B0FF4045064623D0022842D040F68C
:103960000132304B07F158000BACADF82C200B990D
:103970001895CDF86480CDF84A3000F0DBF810A936
:1039800007F1700003F004FE274B0FCB84E80F0013
:103990003A6F214607F1140001F026F91AB0BDE88C
:1039A000F08110231F4A06A906908DF828300BAC31
:1039B0001E4BCDF84A2007930295CDE91805CDE9B5
:1039C000080502A802F0E6FD0823029A03A9204692
:1039D000ADF80C608DF80E50049605930B9500F031
:1039E000E9F8CCE740F60133ADF82C4000200BACF1
:1039F000ADF8183001210B4B42460095CDF84A3006
:103A00002B460E95CDE9180106992046CDE90C55B7
:103A100002F0EEF82946204602F0DCF9AFE700BFDD
:103A2000040204040406040358A701080704010B58
:103A30002DE9F04704462DED028B82B0002949D0D4
:103A4000012140F2011200230091ADF804208DF80D
:103A50000630354A0127354B04F10409344904F195
:103A60003C08626040F20272A36040F60663E160C7
:103A700004F1280A2285A3872782E762276404F0DD
:103A800069F9054603F0BCFF6946064650BB4DB3D5
:103A900004F150008DF8067004F0DEF8072D3ED1D9
:103AA00004F114052046FFF73BFF284601F0E6F835
:103AB0002846B0EE408A01F0CFF8D0ED007AF8EE5B
:103AC000677A88EE277A84ED1B7A02B0BDEC028B10
:103AD000BDE8F08740F2011300918DF80610ADF8B3
:103AE0000430B6E704F1500004F0B6F8072D13D007
:103AF0004946204603F058F90EB9002DD0D1514661
:103B0000504601F0B1FE4046414601F0ADFE04F1E1
:103B1000120000F079F9C3E7002EF0D1C0E7494662
:103B2000204603F041F9BBE705080509050705062E
:103B3000050A060630B585B0002504460122ADF819
:103B40000C102B460399009502F052F801212046F3
:103B500002F040F9012003F04BFF2946204602F015
:103B600039F9012003F044FF0121204605B0BDE8EA
:103B7000304002F02FB900BF10B5C2F3002384B06B
:103B80000C46017C8DF80D2043EA4402FA240223FE
:103B90008DF80C2003AA009402F096FD18B10124C0
:103BA000204604B010BD04460A2003F021FF204641
:103BB00004B010BD034670B543F8042B044684B02E
:103BC00007C983E80700A37983B91A210B461E228F
:103BD000FA2523742046ADF80C20022303AA009591
:103BE00002F072FD28B1012004B070BD1B210B460C
:103BF000EDE70A2003F0FCFE4FF4B85200950223D3
:103C0000ADF80C20204603AA217C02F05DFD0028BF
:103C1000E9D10A2003F0ECFE41F202720095022382
:103C2000ADF80C20204603AA217C02F04DFD0028AF
:103C3000D9D10A2003F0DCFE042200950223ADF85E
:103C40000C20204603AA217C02F03EFD0028CAD1A8
:103C50000A2003F0CDFE062200950223ADF80C20C9
:103C6000204603AA217C02F02FFD0028BBD10A20A8
:103C700003F0BEFE41F2082200950223ADF80C20AD
:103C8000204603AA217C02F01FFD0028ABD10A20A8
:103C9000064603F0ADFE0095022303AA217C2046D0
:103CA000ADF80C6002F010FD00289CD1304603F006
:103CB0009FFE009522790C232046002A8DF80C30B7
:103CC00003AA4FF0020314BF622142218DF80D10A8
:103CD000217C02F0F9FC002885D1304603F088FEF3
:103CE0002279D4E902310B43DBB20AB943F0400335
:103CF00062790AB143F020030E22FA258DF80D30C7
:103D00002046009502238DF80C2003AA217C02F0A6
:103D1000DBFC00287FF467AF0A2003F069FE102265
:103D200000950223ADF80C20204603AA217C02F066
:103D3000CBFC00287FF457AF0A2003F059FE122174
:103D400000950223ADF80C1003AA217C204602F056
:103D5000BBFC00287FF447AF0A2003F049FE012294
:103D600009212046FFF708FF003818BF01203BE774
:103D7000F0B5102387B0234C01220025012600272F
:103D800002A920460195CDE902234FF48052CDE9E6
:103D900004670DF0B5FA642004F0CAF902A94FF4E3
:103DA00080522046CDE9046702261027CDE902673C
:103DB0000DF0A6FA0322102302A92046CDE9022322
:103DC00000230422CDE904234FF480520DF098FA29
:103DD00040F23223042202A9019310232046CDE9A8
:103DE0000223019A012305924FF4805204930DF0AF
:103DF00087FA40F6060120460DF0A2FA284607B0E1
:103E0000F0BD00BFE87106241C4B00221C494FF096
:103E1000400C30B5054689B00220596007219A60F0
:103E20001A620124DA620A224FF4006EDC60069204
:103E30002022CDE9000104200821CDE90201032060
:103E40001021CDE9040108206946C3E904024FF4BA
:103E5000C072181DC3E906C24FF48052C3E909E2DB
:103E60000DF024FA38B92846FFF782FF003818BF52
:103E7000012009B030BD204609B030BDE4710624F0
:103E800040410052614A0021D0B513688EB00A91BA
:103E9000002B40F0B9805E4B01214FF683700C245B
:103EA00011600221D3F8D4200026032742F4805267
:103EB000C3F8D420D3F8D42002F480520092009AA0
:103EC000D3F8E02042F01002C3F8E020D3F8E0205D
:103ED00002F010020192019AD3F8E02042F0400271
:103EE000C3F8E020D3F8E02002F040020292029AE8
:103EF000D3F8E02042F00802C3F8E020D3F8E02035
:103F000002F008020392039AD3F8E02042F4807290
:103F1000C3F8E020D3F8E02002F480720492049AFF
:103F2000D3F8E02042F08002C3F8E020D3F8E0208C
:103F300002F080020592059AD3F8E02042F02002B8
:103F4000C3F8E020D3F8E02002F020020692069A9F
:103F5000D3F8E02042F00402C3F8E020D3F8E030C8
:103F60000C9403F0040307930323079A0B93CDE902
:103F7000080108A9274806F073FA48F2371202230D
:103F800008A925480C94CDE90823CDE90A6706F075
:103F900067FA4CF20372022308A920480C94CDE979
:103FA0000823CDE90A6706F05BFA40F2FF620223BC
:103FB00008A91B480C94CDE90823CDE90A6706F04F
:103FC0004FFA4FF60C72022308A916480C94CDE95B
:103FD0000823CDE90A6706F043FA4FF63F020223B1
:103FE00008A911480C94CDE90823CDE90A6706F029
:103FF00037FA2022022308A90A480C94CDE90A675F
:10400000CDE9082306F02CFA0EB0D0BDE0710624ED
:10401000004402580010025800180258000C0258C0
:1040200000200258001C0258001402582DE9F04FDD
:10403000DFF8108406460D46144608F118002DEDF1
:10404000028B89B000AF03F09BFBD8F8183073B334
:10405000D8F81C30D8F80490002B43690BBF4FF000
:10406000080A4FF0100A4FF0020B4FF0040BB9F1A1
:10407000000F2AD0A200EA46012B02F1070222F02B
:104080000702ADEB020D6846ADEB020D694600F08C
:104090003F81022B00F0D680002B6FD02246C8470C
:1040A000D5462437BD46BDEC028BBDE8F08FD8F86D
:1040B0001C30002BF5D0D8F804904FF0080A4FF0D0
:1040C000020B4369B9F1000FD4D1FB61D8F800307D
:1040D000BB61002BE5D0D54803F0C4FB6B46BBF1B8
:1040E000020F786108EE103AFB6900F083816A469E
:1040F0005146A2EBC40295466200EA46B2FBFBF2CF
:10410000AAEBC40085460AEB8200EE46F861ADEBEF
:10411000010DF8690EEB820CC7F810C0EC46ADEB50
:10412000010D00EB8201CCF80400CCF8081001EB83
:1041300082013869E946CCF80C1000EB8201CCF81A
:1041400000A001EB8202C9E900E0C9E90212012BDB
:1041500000F06483022B00F06C82002B00F0808161
:10416000620849466046BB69984718EE103A243702
:104170009D46BD46BDEC028BBDE8F08F002C8DD076
:104180001A46D8ED0C6A9FEDB27A8446331D36F993
:1041900022E00CF1080C07EE90EA33F922E002323B
:1041A000F8EEE77A944267EE877A67EEA67A4CEDEE
:1041B000027A07EE90EAF8EEE77A67EE877A67EE22
:1041C000A67A4CED017AE2D8F9612246C847984EAA
:1041D000D8ED0D6A0020F9692B1D9FED9E7A9FEDA9
:1041E0009E6ADFED9E5A22E0F4EEC67AF1EE10FAF6
:1041F000C0F2C88447F6FE72D1ED017A45F820205E
:1042000066EEA77AF4EEC77AF1EE10FA40F2F0808B
:10421000F4EEC67AF1EE10FAC0F2D58447F6FE72DB
:1042200043F820200230083184427FF639AFD1EDC7
:10423000007A66EEA77AF4EEC77AF1EE10FAD3D8D8
:104240003246D9E7002C3FF429AFD8ED0C6A8446FA
:104250009FED787A0022331D8E4656F822100CF11D
:10426000080C07EE901A53F822100232F8EEE77AA3
:10427000944267EE877A67EEA67A4CED027A07EEF3
:10428000901AF8EEE77A67EE877A67EEA67A4CED39
:10429000017AE2D871462246C7F81CE0C847664E4C
:1042A000D8ED0D6A0020F9692B1D9FED6A7A9FED0C
:1042B0006A6ADFF894C120E0F4EEC67AF1EE10FAF3
:1042C000C0F279843246D1ED017A45F8202066EEBD
:1042D000A77AF4EEC77AF1EE10FA40F28780F4EE96
:1042E000C67AF1EE10FAC0F25E84324643F820201E
:1042F0000230083184427FF6D3AED1ED007A66EE0B
:10430000A77AF4EEC77AF1EE10FAD5D86246DAE76A
:10431000002C3FF4C3AED8ED0C6A86469FED477A79
:104320004FF0000C331D56F82C200EF1080E82F4CD
:104330000002A2F5000207EE902A53F82C200CF19F
:10434000020CF8EEE77A82F400026445A2F500025E
:1043500067EE877A67EEA67A4EED027A07EE902A2C
:10436000F8EEE77A67EE877A67EEA67A4EED017A85
:10437000D9D8F9612246C847314ED8ED0D6A0020E0
:10438000F9692B1D9FED337A9FED336ADFF8BCC0CE
:104390001FE0F4EEC67AF1EE10FAC0F2FC8332466A
:1043A000D1ED017A45F8202066EEA77AF4EEC77ABF
:1043B000F1EE10FA18D9F4EEC67AF1EE10FAC0F266
:1043C000DA83324643F820200230083184427FF6F7
:1043D00067AED1ED007A66EEA77AF4EEC77AF1EE19
:1043E00010FAD6D86246DBE76246EBE762467DE725
:1043F000324615E7A100D6466208073121F00701D1
:10440000ADEB010DEA46ADEB010D6946ADEB0E0DCE
:104410000AEB8200EC46ADEB0E0D01EB8202F86177
:10442000E946CCE900A0C9E9001290E638720624FA
:104430000280FFFF000000300082FF7F0000003498
:1044400082FF7F001C720624007E00807E0080FFB9
:104450000000003804FF7FBF04FF7F3F00FEFF46DF
:10446000002C00F0C982BBF1020FD8F8242000F024
:10447000FA827969C7F8049002EB810E5FED0C5A5D
:104480008A00DCF808100EF104007A611A46DCF8A4
:104490000C303B61331DD7F810903D61FD69C7E9D1
:1044A00002CB8C46834636F92210D8ED0C7A06EE04
:1044B000101A33F9221006EE901A3EF92210B8EEC7
:1044C000C66A07EE101AF8EEE66A3BF92210B8EE5B
:1044D000C77A26EE256A66EEA56A27EE257A26EECD
:1044E000276A66EEA76A27EE277A07EE901A510828
:1044F0000232F8EEE77A0AEB8100944280ED006A1E
:1045000005EB810067EEA57AC0ED006A0CEB810037
:1045100009EB810180ED007A98ED0C7A67EE877ADD
:10452000C1ED007ABFD8D7F804903D69D7E902CB36
:1045300060466208BB6949469847D8F82C307A69CA
:10454000D8ED0D6A1A441FED3D7A1FED3D6A2B1D13
:10455000904602F1040A5FED3F5A0022A84ED9E9C5
:1045600000EC51E0F4EEC67AF1EE10FAC0F2C78228
:1045700047F6FE7045F822000CEB0100D0ED007A02
:1045800066EEA77AF4EEC77AF1EE10FA4BD9F4EEA4
:10459000C67AF1EE10FAC0F2BA8247F6FE70BBF1AD
:1045A000020F43F822002BD0D9F808000844D0EDC0
:1045B000007A66EEA77AF4EEC77AF1EE10FA36D9F1
:1045C000F4EEC67AF1EE10FAC0F2CD8247F6FE7034
:1045D00048F82200D9F80C000144D1ED007A66EECB
:1045E000A77AF4EEC77AF1EE10FA1ED9F4EEC67A85
:1045F000F1EE10FAC0F2AF8247F6FE714AF82210CF
:10460000023294427FF6B1AD51080EEB8100890071
:10461000D0ED007A66EEA77AF4EEC77AF1EE10FAE2
:10462000A0D83046A6E73046B9E73146E6E730463F
:10463000CEE7002C00F0E081BBF1020FD8F8243067
:1046400000F0E1817A69DCF8081003EB820EC7F80C
:1046500004909300DFED6B5A0EF1040000227B61A1
:10466000DCF80C303B61331DD7F810903D61FD69DB
:10467000C7E902CB8C46834656F82210D8ED0C7A57
:1046800007EE101A53F82210B8EEC76A07EE101A98
:104690005EF82210F8EEC76A07EE101A26EE256AB9
:1046A0005BF82210B8EEC77A66EEA56A26EE276A96
:1046B00027EE257A66EEA76A27EE277A07EE901A8C
:1046C00051080232F8EEE77A0AEB8100944280ED5D
:1046D000006A05EB810067EEA57AC0ED006A0CEB7D
:1046E000810009EB810180ED007A98ED0C7A67EE8C
:1046F000877AC1ED007ABFD8D7F804903D69D7E931
:1047000002CB60466208BB6949469847D8F82C300E
:104710007A69D8ED0D6A1A449FED3E7A9FED3E6AA4
:10472000131D9246DFF8E4C00022FB612B1D364EBC
:10473000D9E9008E4EE0F4EEC67AF1EE10FAC0F23E
:10474000FC81304645F822000EEB0100D0ED007AE6
:1047500066EEA77AF4EEC77AF1EE10FA49D9F4EED4
:10476000C67AF1EE10FAC0F2EF813046BBF1020FCB
:1047700043F822002AD0D9F808000844D0ED007A86
:1047800066EEA77AF4EEC77AF1EE10FA35D9F4EEB8
:10479000C67AF1EE10FAC0F2C98130464AF822001A
:1047A000D9F80C000144D1ED007A66EEA77AF4EE58
:1047B000C77AF1EE10FA1ED9F4EEC67AF1EE10FACD
:1047C000C0F2AD813146F86940F8221002329442BD
:1047D0007FF6CBAC510808EB81008900D0ED007A60
:1047E00066EEA77AF4EEC77AF1EE10FAA3D8604627
:1047F000A8E76046BAE76146E5E76046CEE700BF56
:104800000280FFFF000000300082FF7F007E0080FA
:104810000000003404FF7FBF04FF7F3F002C00F046
:10482000EB807A690021D8F82430C7F8109003EBA8
:10483000820ED7F81C909300FD610EF104021FED6B
:104840000C6A7B61331D154656F821204808D8EDC7
:104850000C6ABBF1020F82F40002A2F5000207EE1F
:10486000902A53F8212082F40002B8EEE77AA2F5EC
:10487000000227EE067A07EE902A0AEB8002F8EE95
:10488000E77A27EE267A67EE867A82ED007A09EBE0
:1048900080024FEA800067EEA67AC2ED007A27D048
:1048A0005EF8212082F40002A2F5000207EE902AB1
:1048B00055F8212082F40002B8EEE77AA2F5000252
:1048C00027EE067A07EE902ADCF80820F8EEE77A61
:1048D000024427EE267A67EE867A82ED007A98ED1A
:1048E0000C7ADCF80C2067EE877A0244C2ED007A7D
:1048F00002318C42A8D8D7F8109060466208BB6994
:104900004946FD699847D8F82C307A69D8ED0D6A88
:104910001A441FED407A1FED406A131D9246DFF8DE
:10492000C4C20022FB612B1DAB4ED9E9008E4EE0C4
:10493000F4EEC67AF1EE10FAC0F2C580304645F8C2
:1049400022000EEB0100D0ED007A66EEA77AF4EEBD
:10495000C77AF1EE10FA49D9F4EEC67AF1EE10FA00
:10496000C0F2BF803046BBF1020F43F822002AD0CC
:10497000D9F808000844D0ED007A66EEA77AF4EE84
:10498000C77AF1EE10FA35D9F4EEC67AF1EE10FAE4
:10499000C0F2AE8030464AF82200D9F80C0001443B
:1049A000D1ED007A66EEA77AF4EEC77AF1EE10FA4E
:1049B0001ED9F4EEC67AF1EE10FAC0F28B803146C1
:1049C000F86940F82210023294427FF6CEAB5108CB
:1049D00008EB81008900D0ED007A66EEA77AF4EE4C
:1049E000C77AF1EE10FAA3D86046A8E76046BAE7A6
:1049F0006146E5E76046CEE7224649466046BB6928
:104A00009847FFF7B2BBC7F810B0002298ED0C6AC8
:104A1000331DDFED726AD7F81CB0786956F82210A2
:104A200007EE901A53F82210B8EEE77A07EE901AC4
:104A300051080232F8EEE77A27EE267A0AEB810E69
:104A400094420BEB810167EEA67A27EE067A67EEB9
:104A5000867A8EED007AC1ED007ADFD88300D7F830
:104A600010B07B614DE61A46C7F810B098ED0C6A9D
:104A7000331DDFED5B6AD7F81CB0786936F9221078
:104A800007EE101A33F9221007EE901AB8EEC77A23
:104A900051080232F8EEE77A27EE267A0AEB810E09
:104AA00094420BEB810167EEA67A27EE067A67EE59
:104AB000867A8EED007AC1ED007ADFD88300D7F8D0
:104AC00010B07B6134E5F0EE675AFEEEE45A15EE65
:104AD000900A34E7F0EE675AFEEEE45A15EE901AAB
:104AE0006EE7F0EE675AFEEEE45A15EE900A3AE7EA
:104AF000F0EE675AFEEEE45A15EE900A4BE767EEC9
:104B0000A57AFDEEE77A17EE900A00B232E567EE7D
:104B1000A57AFDEEE77A17EE900A00B23FE5F0EED7
:104B2000675AFEEEE05A15EE901A4CE6F0EE675A20
:104B3000FEEEE05A15EE900A30E6F0EE675AFEEE11
:104B4000E05A15EE900AFDE5F0EE675AFEEEE05AE7
:104B500015EE900A0AE667EEA57AFDEEE77A17EE03
:104B6000901A09B24AE567EEA57AFDEEE77A17EEEC
:104B7000900A00B22CE5F0EE675AFEEEE45A15EE0C
:104B8000902A1FE467EEA57AFDEEE77A17EE902AE9
:104B900012B2FFF731BBF0EE675AFEEEE45A15EEA3
:104BA000902AFFF7FDBBF0EE675AFEEEE05A15EED5
:104BB000902AFFF79BBBF0EE675AFEEEE05A15EE27
:104BC000902AFFF780BB67EEA57AFDEEE77A17EE35
:104BD000902A12B2FFF724BB82FF7F000000003052
:104BE000000000387E0080FF30B5184C154685B0B7
:104BF000046004F1080EEC460FC98EE80F00D4EDF6
:104C0000047AF5EEC07A8CE80F00F1EE10FA1ADDA6
:104C1000B7EE006A94ED057A27EE277AC6EE276A8A
:104C200084ED0D7AC4ED0C6A6DB1204640F8185F32
:104C300002F0A6FD064903690020064A2162A2622D
:104C4000E36005B030BD012005B030BD1C72062404
:104C5000082100300801003000680830704700BFAC
:104C6000B1F5807F03680A4628BF4FF48072B1F522
:104C7000807F9A6094BF0020012070470068183040
:104C800002F0DEBD70B504688AB0A369E1600BB3C1
:104C900004F118056FF0F4134FF60B722846ADF8C7
:104CA0000C20CDE9013302F06BFD8446EE46E66848
:104CB000BCE80F00AEE80F00BCE80F00AEE80F0044
:104CC0009CE803008EE8030069462846049602F03B
:104CD0005FFC38BBE06918B304F11C056FF0F413F6
:104CE0004FF60B722846ADF80C20CDE9013302F0E7
:104CF00047FD8446EE46E468BCE80F00AEE80F00CE
:104D0000BCE80F00AEE80F009CE803008EE803004B
:104D100069462846049402F03BFC003818BF012085
:104D20000AB070BD01200AB070BD00BF30B5046884
:104D300083B00D46E3694BB1A3680020E26A616A63
:104D40009B00009004F11C0002F01CFDA3680748C2
:104D5000A26A9B00216A009004F1180002F012FD83
:104D60000020C4E9005003B030BD00BF2D40000852
:104D700010B4074B4FF07E513024002203201961FC
:104D80009C60D8605DF8044B5961C3E90622704706
:104D90001C720624F6EE007A9FED166A20EE207A49
:104DA0000160F7EE006A80ED036A80ED020A27EEEB
:104DB000277AC6EE877AF4EEE67AF1EE10FA11DD84
:104DC000F0EE667A4FF07E514FF0000C0276002232
:104DD000C0ED017AC0F814C0016143768276C0ED5F
:104DE000070A7047F4EEC67AF1EE10FAEAD5F0EE53
:104DF000467AE7E7000000000268037E128807EEAB
:104E0000902AFBEEC87A1BB1B7EE007A77EE677A8C
:104E1000D0ED056A90ED047A77EEE67A437E67EE90
:104E2000877A0BB1F1EE677A90ED030A90ED017A83
:104E300077EEC07AA7EE270A80ED030A704700BF1D
:104E4000837E80ED020AABB9D0ED077A27EE800AA7
:104E5000F6EE007AB7EE007A20EE270AC7EE007A67
:104E6000F4EEC77AF1EE10FA07DDF0EE477AC0ED06
:104E7000017A7047DFED067AE8E7F5EEC07AF1EEE9
:104E800010FAF4D5DFED037AC0ED017A704700BF68
:104E90006F12033B0000000030B5044687B00025C8
:104EA000ADF81410ADF81020ADF80C3002F09EFDF6
:104EB0002A462060059904F12C00257101230095F4
:104EC00000F096FE01232A46049904F14000009563
:104ED00000F08EFE9FED060A039904F1080000F031
:104EE00025F94FF6FF73A565A4F8543007B030BD1F
:104EF00000000000F8B5044602F078FD00262368A3
:104F00002671834205D104F10800BDE8F84000F0A5
:104F100025B9012794F85450206004F12C00BD40BD
:104F2000277100F04BFF6DB2284394F85550BD40F7
:104F300084F8540004F1400000F040FF94F854302D
:104F40006DB2A66503F003032843022BC0B284F8B8
:104F5000550009D000F003000228D4D1002BD2D193
:104F60004FF0FF33A365CEE78307CCD1A765CAE72F
:104F700070B52DED028B84B0002615460446ADF8C1
:104F80000C1033460122039918300096B0EE408A87
:104F900000F02EFEB5FA85F3002226605B096660FC
:104FA000A260257584ED048AA575637504B0BDEC17
:104FB000028B70BD20EE007ADFED067A27EE000A44
:104FC00060EE277A80ED020AFCEEE77AC0ED017A06
:104FD000704700BF00FF7F4790ED046AB7EE007A8C
:104FE000DFED0E5A0346D0ED036A1830C5EE867A1F
:104FF00077EEA67AF4EEC77AF1EE10FAC8BF77EE34
:10500000C77A10ED047AB4EEE77A40ED037AF1EE58
:1050100010FACCBF597D997D00F0DCBE0000F04253
:10502000DFED167A8C46B4EE670A10B50446864664
:10503000F1EE10FA2DED028B80ED080A48BFB0EEBC
:10504000670AC0ED090AB0EE608A80F83420BCE837
:105050000F00AEE80F009CE80F008EE80F0013F081
:10506000FDF8F0EE407AB0EE480AC4ED0A7A13F08B
:10507000F5F884ED0B0ABDEC028B10BD95BFD6335D
:1050800090F8343010B50446032B4BD8DFE803F01A
:105090003B2A1502FFF7B0FE60EE006AD4ED087AF5
:1050A00094ED097A26EE800A37EE677AE0EE077A09
:1050B000C4ED0C7AB0EE670A10BDFFF79DFE94EDCB
:1050C0000A7AD4ED0B7A77EEC77AA0EE277AB0EEA3
:1050D000470A13F051F8F0EE407A84ED0C0AB0EE76
:1050E000670A10BDFFF788FED4ED087A94ED097ABF
:1050F00020EE000A37EE677AE0EE077AB0EE670A34
:10510000C4ED0C7A10BDFFF777FED4ED087A94ED6C
:10511000097A37EE677AE0EE077AB0EE670AC4EDF7
:105120000C7A10BDD0ED0C7AC4E700BF10B586B084
:105130000446ADF80C10ADF8141002F057FC4FF413
:105140008071002220600123A18004F10800A18366
:105150000599009200F04CFD06B010BD10B5044654
:1051600002F044FC002122682171824200D110BD6E
:105170000346012204F108002360227100F01EFEA4
:10518000227F617F53005BB281B180F0010252B295
:105190001343DBB27F2B2377E9D102F027FC07EE24
:1051A000900AF8EE677AC4ED087A10BD42B2EFE7D4
:1051B00010B4002383B00324018080F8503080F8BD
:1051C0005120C0E9014303B05DF8044B704700BFB4
:1051D0002DE9F04FBE4F0024BE4D8DB0037007F196
:1051E00040034260804616468946202221463846C2
:1051F000C5F88835C5F88475CDE90244CDE9044485
:10520000CDE90644CDE90844CDE90A4414F052F949
:105210002022214605F26250C5F85145C5F8554592
:10522000C5F85945C5F85D4514F044F985F8506551
:10523000D8F8043085F86846002B62D005F5AA6AD4
:1052400009F1500B264609EB0401281952220136B8
:1052500014F008F94FF0000327F8023B1BF8043064
:105260000AF8013F002B70D0D8F804304FF001024B
:1052700054349E4285F86826E5D3974A082195F86C
:1052800050350026C5F88C254FF48022934800271E
:10529000C5F8A4350023C5F890250122C5F89C1552
:1052A00095F86816C5F8943585F8A035C5F89825A1
:1052B000C0E9006700293ED0C5F8B82585F8A135BA
:1052C00085F8A835002298F80030C5F8BC25C5F847
:1052D000C025002B40D0012200200121013B85F890
:1052E000C4257F4AC2E90001082B37D8DFE813F054
:1052F000BD00C200C700CC00D100D600DB00E10039
:10530000E800C5F89435F6B285F8A0350020724B58
:105310000021C5F8A465C5F88C354FF48023C5F885
:1053200090350123C5F898350823C5F89C3505F557
:10533000B663C3E90001012385F8A135002385F890
:10534000A8350323C5F8B835BCE7D8F80430543481
:10535000B3423FF678AF90E785F8C435614803F073
:105360004BFB034608B1FFBEFEE702A95D4802936E
:1053700003F0A2FC0446002875D1042340F2FF721A
:105380000A90CDE9082395F85035002B00F0F58000
:1053900006234FF05409019309FB045393F851304D
:1053A000072B07D8DFE803F0595C5653504D4A04E9
:1053B0000723079326B206EB4606C6EBC60605EBA7
:1053C0008608B700404600F035FB09FB045393F80C
:1053D0005030042B00F3AD80022B00F3C08000F0AE
:1053E000BC802B19002283F8402515F8262098F858
:1053F0000130002A7CD0022A00F08D80012A40F082
:10540000B480012B00F0B380002B374B18BF002372
:10541000059305A9019B3348069302F0EDFE002891
:1054200040F0AE80013495F85035E4B2A34240F22A
:10543000A4802E4B53F824300193ADE70623079345
:10544000B8E705230793B5E704230793B2E70323DF
:105450000793AFE702230793ACE700230793A9E77D
:1054600001230793A6E7FFBEFEE70320402142E9A0
:10547000020173E70720602142E902016EE70F2075
:10548000802142E9020169E71F20A02142E90201CF
:1054900064E73F20C02142E902015FE77F20E0216D
:1054A00042E902015AE7FF204FF4807142E902010C
:1054B00054E740F2FF104FF4907142E902014DE7CA
:1054C00040F2FF304FF4A07142E9020146E700BF0D
:1054D0000841003058720624002002400878062453
:1054E00028780624E47706240002B02534A90108B0
:1054F000062B36D0072B3CD0022B49D0032B49D0AA
:10550000002B4BD0012B47D0042B49D0052B254B2A
:1055100018BF00237CE7042B25D0052B2BD08BB3A1
:10552000012B31D0022B31D0032B1F4B18BF00238E
:105530006EE70323143705EB040B4FF0000A2F44EA
:105540008BF8403538460AF1010A00F073FA9BF8EF
:10555000403514375345F5DC47E70123EAE70223DA
:10556000E8E7124B54E7124B52E7002350E7114B88
:105570004EE7114B4CE7114B4AE70DB0BDE8F08FF9
:10558000FFBEFEE70E4B43E70E4B41E70E4B3FE7F6
:105590000E4B3DE70E4B3BE70E4B39E70E4B37E723
:1055A0000E4B35E70000B84F002090360800900CF5
:1055B0001000C0102000F0148000501D0001802158
:1055C0000004002A0008302E001060320040C03A6B
:1055D0000080F03E00005247000021430000844B51
:1055E00038B5094C40F2FF724FF0011104F28C55AE
:1055F000284603F00FFB94F85025D4F8841528466C
:10560000BDE8384003F06EB858720624034B0F29EA
:10561000D3F8840598BF00EB410070475872062408
:10562000244B02689A4200D07047234A0023234843
:10563000D2F8D81030B5224C41F0200183B0C4F824
:10564000F0050920C4F8F83504F5BE65C4F8F40582
:105650004FF48060C2F8D8104FF40061D2F8D8201F
:10566000C4F8000694F8680602F02002C4F8FC357D
:1056700098420192C4F804164FF40051C4F8103651
:105680002846C4F81436019B14BF00234FF48073DE
:10569000C4F80816C4F80C3603F03AFD08B1FFBE92
:1056A000FEE704F28C53C4F8D855C4F8283603B08A
:1056B00030BD00BF002002400044025840000240BC
:1056C00058720624014804F075BB00BF48780624D0
:1056D00002682DE9F84F504B9A4201D0BDE8F88F8F
:1056E0004E4D95F86836002BF8D095F85035002BC4
:1056F0007BD0002405F13C0905F2625605F5AA6746
:10570000A04613E003F0010117F811BCA9F128002D
:1057100000F060FBBBF1010F25D895F8503501343E
:1057200009F154090236A2B293422BD917F8012F7E
:10573000002AF4D0D5F884350021327833F81400EB
:10574000D5F8883503EB041323F8120033880133AE
:105750009BB233805FFA83FA3A789A42D2D88A466B
:10576000A6F80080D0E7CAF34001A9F1140000F0C8
:1057700031FBBBF1020FCAF38001CED0484600F0E6
:1057800029FBCAE7002395F86806254909229842B3
:10579000C5F8F8354FF48060C5F8F015C5F8F42564
:1057A0004FF400614FF40052C5F8FC3508BF4FF4C8
:1057B0008073C5F80006C5F80416C5F8082600224F
:1057C0001848C5F80C36C5F81026C5F8142603F09D
:1057D0009FFC08B1FFBEFEE795F85025D5F884156B
:1057E0001148BDE8F84F02F07DBF0D4909224FF482
:1057F0008060C5F8F835C5F8F0154FF40061C5F8BC
:10580000F4254FF40052C5F8FC35C5F80006C5F87C
:105810000416C5F80826D2E7002002405872062474
:105820004000024048780624E4770624704700BF11
:105830000C4B4FF60B71002203F5A8601980DA605B
:1058400099821A6219855A6399879A64C3E9012279
:10585000C3E90622C3E90B22C3E91022543398425C
:10586000ECD170475872062484460FC98CE80F00AB
:105870009CF800300B2B30D09CF801200F2A2CD83C
:10588000022900B591B041D0032902D0012900D0EE
:1058900000210C91DCF80810012902D0022918BF60
:1058A00000210D91DCF80C10022904D0032902D04C
:1058B000012918BF00210A2B0E910FD85B4800EB7D
:1058C0008320CCF810000A2B17D8DFE803F0A09251
:1058D0008476685A4C3E3022090070470020F0E779
:1058E000534BD3F8E01041F48061C3F8E010D3F8D3
:1058F000E03003F480630A930A9B01230BA99340D1
:105900000B9304F0ADFD11B05DF804FB11210C9177
:10591000C0E7474BD3F8E01041F40071C3F8E01042
:10592000D3F8E03003F400730993099BE5E7404B9B
:10593000D3F8E01041F48071C3F8E010D3F8E03000
:1059400003F480730893089BD7E7394BD3F8E01032
:1059500041F08001C3F8E010D3F8E03003F0800399
:105960000793079BC9E7324BD3F8E01041F04001A1
:10597000C3F8E010D3F8E03003F040030693069B31
:10598000BBE72B4BD3F8E01041F02001C3F8E01047
:10599000D3F8E03003F020030593059BADE7244BDB
:1059A000D3F8E01041F01001C3F8E010D3F8E03074
:1059B00003F010030493049B9FE71D4BD3F8E01002
:1059C00041F00801C3F8E010D3F8E03003F0080319
:1059D0000393039B91E7164BD3F8E01041F00401C9
:1059E000C3F8E010D3F8E03003F004030293029B05
:1059F00083E70F4BD3F8E01041F00201C3F8E01049
:105A0000D3F8E03003F002030193019B75E7084BE4
:105A1000D3F8E01041F00101C3F8E010D3F8E03012
:105A200003F001030093009B67E700BF00000258EA
:105A30000044025803780B2B2DD042780F2A2AD825
:105A40004168022910B590B03ED0032902D0012947
:105A500000D000210C918168012902D0022918BFD1
:105A600000210D91C168022904D0032902D0012927
:105A700018BF00210A2B0E910ED85B4C04EB832437
:105A800004610A2B17D8DFE803F009A09284766836
:105A90005A4C3E30220070470024F1E7534BD3F8B4
:105AA000E01041F00101C3F8E010D3F8E03003F05A
:105AB00001030093009B01230BA9204693400B9305
:105AC00004F0CEFC10B010BD11210C91C3E7474B80
:105AD000D3F8E01041F48061C3F8E010D3F8E0306F
